{
  "_format": "hh-sol-artifact-1",
  "contractName": "S2ONFT",
  "sourceName": "contracts/S2ONFT.sol",
  "abi": [
    {
      "inputs": [],
      "stateMutability": "nonpayable",
      "type": "constructor"
    },
    {
      "anonymous": false,
      "inputs": [
        {
          "indexed": true,
          "internalType": "address",
          "name": "owner",
          "type": "address"
        },
        {
          "indexed": true,
          "internalType": "address",
          "name": "approved",
          "type": "address"
        },
        {
          "indexed": true,
          "internalType": "uint256",
          "name": "tokenId",
          "type": "uint256"
        }
      ],
      "name": "Approval",
      "type": "event"
    },
    {
      "anonymous": false,
      "inputs": [
        {
          "indexed": true,
          "internalType": "address",
          "name": "owner",
          "type": "address"
        },
        {
          "indexed": true,
          "internalType": "address",
          "name": "operator",
          "type": "address"
        },
        {
          "indexed": false,
          "internalType": "bool",
          "name": "approved",
          "type": "bool"
        }
      ],
      "name": "ApprovalForAll",
      "type": "event"
    },
    {
      "anonymous": false,
      "inputs": [
        {
          "indexed": false,
          "internalType": "uint8",
          "name": "version",
          "type": "uint8"
        }
      ],
      "name": "Initialized",
      "type": "event"
    },
    {
      "anonymous": false,
      "inputs": [
        {
          "indexed": true,
          "internalType": "address",
          "name": "previousOwner",
          "type": "address"
        },
        {
          "indexed": true,
          "internalType": "address",
          "name": "newOwner",
          "type": "address"
        }
      ],
      "name": "OwnershipTransferred",
      "type": "event"
    },
    {
      "anonymous": false,
      "inputs": [
        {
          "indexed": true,
          "internalType": "bytes32",
          "name": "role",
          "type": "bytes32"
        },
        {
          "indexed": true,
          "internalType": "bytes32",
          "name": "previousAdminRole",
          "type": "bytes32"
        },
        {
          "indexed": true,
          "internalType": "bytes32",
          "name": "newAdminRole",
          "type": "bytes32"
        }
      ],
      "name": "RoleAdminChanged",
      "type": "event"
    },
    {
      "anonymous": false,
      "inputs": [
        {
          "indexed": true,
          "internalType": "bytes32",
          "name": "role",
          "type": "bytes32"
        },
        {
          "indexed": true,
          "internalType": "address",
          "name": "account",
          "type": "address"
        },
        {
          "indexed": true,
          "internalType": "address",
          "name": "sender",
          "type": "address"
        }
      ],
      "name": "RoleGranted",
      "type": "event"
    },
    {
      "anonymous": false,
      "inputs": [
        {
          "indexed": true,
          "internalType": "bytes32",
          "name": "role",
          "type": "bytes32"
        },
        {
          "indexed": true,
          "internalType": "address",
          "name": "account",
          "type": "address"
        },
        {
          "indexed": true,
          "internalType": "address",
          "name": "sender",
          "type": "address"
        }
      ],
      "name": "RoleRevoked",
      "type": "event"
    },
    {
      "anonymous": false,
      "inputs": [
        {
          "indexed": true,
          "internalType": "address",
          "name": "from",
          "type": "address"
        },
        {
          "indexed": true,
          "internalType": "address",
          "name": "to",
          "type": "address"
        },
        {
          "indexed": true,
          "internalType": "uint256",
          "name": "tokenId",
          "type": "uint256"
        }
      ],
      "name": "Transfer",
      "type": "event"
    },
    {
      "inputs": [],
      "name": "DEFAULT_ADMIN_ROLE",
      "outputs": [
        {
          "internalType": "bytes32",
          "name": "",
          "type": "bytes32"
        }
      ],
      "stateMutability": "view",
      "type": "function"
    },
    {
      "inputs": [],
      "name": "MINTER_ROLE",
      "outputs": [
        {
          "internalType": "bytes32",
          "name": "",
          "type": "bytes32"
        }
      ],
      "stateMutability": "view",
      "type": "function"
    },
    {
      "inputs": [],
      "name": "SUPERAPP_ROLE",
      "outputs": [
        {
          "internalType": "bytes32",
          "name": "",
          "type": "bytes32"
        }
      ],
      "stateMutability": "view",
      "type": "function"
    },
    {
      "inputs": [
        {
          "internalType": "address",
          "name": "to",
          "type": "address"
        },
        {
          "internalType": "uint256",
          "name": "tokenId",
          "type": "uint256"
        }
      ],
      "name": "approve",
      "outputs": [],
      "stateMutability": "nonpayable",
      "type": "function"
    },
    {
      "inputs": [
        {
          "internalType": "address",
          "name": "owner",
          "type": "address"
        }
      ],
      "name": "balanceOf",
      "outputs": [
        {
          "internalType": "uint256",
          "name": "",
          "type": "uint256"
        }
      ],
      "stateMutability": "view",
      "type": "function"
    },
    {
      "inputs": [
        {
          "internalType": "uint256",
          "name": "tokenId",
          "type": "uint256"
        }
      ],
      "name": "exists",
      "outputs": [
        {
          "internalType": "bool",
          "name": "",
          "type": "bool"
        }
      ],
      "stateMutability": "view",
      "type": "function"
    },
    {
      "inputs": [
        {
          "internalType": "uint256",
          "name": "tokenId",
          "type": "uint256"
        }
      ],
      "name": "getApproved",
      "outputs": [
        {
          "internalType": "address",
          "name": "",
          "type": "address"
        }
      ],
      "stateMutability": "view",
      "type": "function"
    },
    {
      "inputs": [
        {
          "internalType": "bytes32",
          "name": "role",
          "type": "bytes32"
        }
      ],
      "name": "getRoleAdmin",
      "outputs": [
        {
          "internalType": "bytes32",
          "name": "",
          "type": "bytes32"
        }
      ],
      "stateMutability": "view",
      "type": "function"
    },
    {
      "inputs": [
        {
          "internalType": "bytes32",
          "name": "role",
          "type": "bytes32"
        },
        {
          "internalType": "address",
          "name": "account",
          "type": "address"
        }
      ],
      "name": "grantRole",
      "outputs": [],
      "stateMutability": "nonpayable",
      "type": "function"
    },
    {
      "inputs": [
        {
          "internalType": "bytes32",
          "name": "role",
          "type": "bytes32"
        },
        {
          "internalType": "address",
          "name": "account",
          "type": "address"
        }
      ],
      "name": "hasRole",
      "outputs": [
        {
          "internalType": "bool",
          "name": "",
          "type": "bool"
        }
      ],
      "stateMutability": "view",
      "type": "function"
    },
    {
      "inputs": [
        {
          "internalType": "address",
          "name": "_admin",
          "type": "address"
        },
        {
          "internalType": "address",
          "name": "_owner",
          "type": "address"
        },
        {
          "components": [
            {
              "internalType": "string",
              "name": "name",
              "type": "string"
            },
            {
              "internalType": "string",
              "name": "symbol",
              "type": "string"
            },
            {
              "internalType": "string",
              "name": "uri",
              "type": "string"
            },
            {
              "internalType": "uint256",
              "name": "maxSupply",
              "type": "uint256"
            }
          ],
          "internalType": "struct S2ONFT.Settings",
          "name": "_settings",
          "type": "tuple"
        }
      ],
      "name": "initialize",
      "outputs": [],
      "stateMutability": "nonpayable",
      "type": "function"
    },
    {
      "inputs": [
        {
          "internalType": "address",
          "name": "owner",
          "type": "address"
        },
        {
          "internalType": "address",
          "name": "operator",
          "type": "address"
        }
      ],
      "name": "isApprovedForAll",
      "outputs": [
        {
          "internalType": "bool",
          "name": "",
          "type": "bool"
        }
      ],
      "stateMutability": "view",
      "type": "function"
    },
    {
      "inputs": [
        {
          "internalType": "address",
          "name": "forwarder",
          "type": "address"
        }
      ],
      "name": "isTrustedForwarder",
      "outputs": [
        {
          "internalType": "bool",
          "name": "",
          "type": "bool"
        }
      ],
      "stateMutability": "view",
      "type": "function"
    },
    {
      "inputs": [],
      "name": "maxSupply",
      "outputs": [
        {
          "internalType": "uint256",
          "name": "",
          "type": "uint256"
        }
      ],
      "stateMutability": "view",
      "type": "function"
    },
    {
      "inputs": [],
      "name": "mint",
      "outputs": [],
      "stateMutability": "nonpayable",
      "type": "function"
    },
    {
      "inputs": [],
      "name": "name",
      "outputs": [
        {
          "internalType": "string",
          "name": "",
          "type": "string"
        }
      ],
      "stateMutability": "view",
      "type": "function"
    },
    {
      "inputs": [
        {
          "internalType": "address",
          "name": "",
          "type": "address"
        },
        {
          "internalType": "address",
          "name": "",
          "type": "address"
        },
        {
          "internalType": "uint256",
          "name": "",
          "type": "uint256"
        },
        {
          "internalType": "bytes",
          "name": "",
          "type": "bytes"
        }
      ],
      "name": "onERC721Received",
      "outputs": [
        {
          "internalType": "bytes4",
          "name": "",
          "type": "bytes4"
        }
      ],
      "stateMutability": "nonpayable",
      "type": "function"
    },
    {
      "inputs": [
        {
          "internalType": "address",
          "name": "from",
          "type": "address"
        },
        {
          "internalType": "address",
          "name": "to",
          "type": "address"
        },
        {
          "internalType": "uint256",
          "name": "tokenId",
          "type": "uint256"
        }
      ],
      "name": "onStreamChange",
      "outputs": [],
      "stateMutability": "nonpayable",
      "type": "function"
    },
    {
      "inputs": [],
      "name": "owner",
      "outputs": [
        {
          "internalType": "address",
          "name": "",
          "type": "address"
        }
      ],
      "stateMutability": "view",
      "type": "function"
    },
    {
      "inputs": [
        {
          "internalType": "uint256",
          "name": "tokenId",
          "type": "uint256"
        }
      ],
      "name": "ownerOf",
      "outputs": [
        {
          "internalType": "address",
          "name": "",
          "type": "address"
        }
      ],
      "stateMutability": "view",
      "type": "function"
    },
    {
      "inputs": [],
      "name": "renounceOwnership",
      "outputs": [],
      "stateMutability": "nonpayable",
      "type": "function"
    },
    {
      "inputs": [
        {
          "internalType": "bytes32",
          "name": "role",
          "type": "bytes32"
        },
        {
          "internalType": "address",
          "name": "account",
          "type": "address"
        }
      ],
      "name": "renounceRole",
      "outputs": [],
      "stateMutability": "nonpayable",
      "type": "function"
    },
    {
      "inputs": [
        {
          "internalType": "bytes32",
          "name": "role",
          "type": "bytes32"
        },
        {
          "internalType": "address",
          "name": "account",
          "type": "address"
        }
      ],
      "name": "revokeRole",
      "outputs": [],
      "stateMutability": "nonpayable",
      "type": "function"
    },
    {
      "inputs": [
        {
          "internalType": "address",
          "name": "from",
          "type": "address"
        },
        {
          "internalType": "address",
          "name": "to",
          "type": "address"
        },
        {
          "internalType": "uint256",
          "name": "tokenId",
          "type": "uint256"
        }
      ],
      "name": "safeTransferFrom",
      "outputs": [],
      "stateMutability": "nonpayable",
      "type": "function"
    },
    {
      "inputs": [
        {
          "internalType": "address",
          "name": "from",
          "type": "address"
        },
        {
          "internalType": "address",
          "name": "to",
          "type": "address"
        },
        {
          "internalType": "uint256",
          "name": "tokenId",
          "type": "uint256"
        },
        {
          "internalType": "bytes",
          "name": "data",
          "type": "bytes"
        }
      ],
      "name": "safeTransferFrom",
      "outputs": [],
      "stateMutability": "nonpayable",
      "type": "function"
    },
    {
      "inputs": [
        {
          "internalType": "address",
          "name": "operator",
          "type": "address"
        },
        {
          "internalType": "bool",
          "name": "approved",
          "type": "bool"
        }
      ],
      "name": "setApprovalForAll",
      "outputs": [],
      "stateMutability": "nonpayable",
      "type": "function"
    },
    {
      "inputs": [
        {
          "internalType": "bytes4",
          "name": "interfaceId",
          "type": "bytes4"
        }
      ],
      "name": "supportsInterface",
      "outputs": [
        {
          "internalType": "bool",
          "name": "",
          "type": "bool"
        }
      ],
      "stateMutability": "view",
      "type": "function"
    },
    {
      "inputs": [],
      "name": "symbol",
      "outputs": [
        {
          "internalType": "string",
          "name": "",
          "type": "string"
        }
      ],
      "stateMutability": "view",
      "type": "function"
    },
    {
      "inputs": [
        {
          "internalType": "uint256",
          "name": "tokenId",
          "type": "uint256"
        }
      ],
      "name": "tokenURI",
      "outputs": [
        {
          "internalType": "string",
          "name": "",
          "type": "string"
        }
      ],
      "stateMutability": "view",
      "type": "function"
    },
    {
      "inputs": [
        {
          "internalType": "address",
          "name": "from",
          "type": "address"
        },
        {
          "internalType": "address",
          "name": "to",
          "type": "address"
        },
        {
          "internalType": "uint256",
          "name": "tokenId",
          "type": "uint256"
        }
      ],
      "name": "transferFrom",
      "outputs": [],
      "stateMutability": "nonpayable",
      "type": "function"
    },
    {
      "inputs": [
        {
          "internalType": "address",
          "name": "newOwner",
          "type": "address"
        }
      ],
      "name": "transferOwnership",
      "outputs": [],
      "stateMutability": "nonpayable",
      "type": "function"
    }
  ],
  "bytecode": "0x60a06040523480156200001157600080fd5b5073bf175fcc7086b4f9bd59d5eae8ea67b8f940de0d8073ffffffffffffffffffffffffffffffffffffffff1660808173ffffffffffffffffffffffffffffffffffffffff1681525050506200006c6200007260201b60201c565b6200021c565b600060019054906101000a900460ff1615620000c5576040517f08c379a0000000000000000000000000000000000000000000000000000000008152600401620000bc90620001bf565b60405180910390fd5b60ff801660008054906101000a900460ff1660ff1614620001365760ff6000806101000a81548160ff021916908360ff1602179055507f7f26b83ff96e1f2b6a682f133852f6798a09c465da95921460cefb384740249860ff6040516200012d9190620001ff565b60405180910390a15b565b600082825260208201905092915050565b7f496e697469616c697a61626c653a20636f6e747261637420697320696e69746960008201527f616c697a696e6700000000000000000000000000000000000000000000000000602082015250565b6000620001a760278362000138565b9150620001b48262000149565b604082019050919050565b60006020820190508181036000830152620001da8162000198565b9050919050565b600060ff82169050919050565b620001f981620001e1565b82525050565b6000602082019050620002166000830184620001ee565b92915050565b60805161411f620002386000396000610a1a015261411f6000f3fe608060405234801561001057600080fd5b50600436106101e55760003560e01c8063715018a61161010f578063b88d4fde116100a2578063d5abeb0111610071578063d5abeb011461058e578063d7a612d1146105ac578063e985e9c5146105c8578063f2fde38b146105f8576101e5565b8063b88d4fde14610508578063c87b56dd14610524578063d539139314610554578063d547741f14610572576101e5565b806398d1ccda116100de57806398d1ccda146104945780639e45e44a146104b0578063a217fddf146104ce578063a22cb465146104ec576101e5565b8063715018a61461041e5780638da5cb5b1461042857806391d148541461044657806395d89b4114610476576101e5565b8063248a9ca3116101875780634f558e79116101565780634f558e791461035e578063572b6c051461038e5780636352211e146103be57806370a08231146103ee576101e5565b8063248a9ca3146102da5780632f2ff15d1461030a57806336568abe1461032657806342842e0e14610342576101e5565b8063095ea7b3116101c3578063095ea7b3146102685780631249c58b14610284578063150b7a021461028e57806323b872dd146102be576101e5565b806301ffc9a7146101ea57806306fdde031461021a578063081812fc14610238575b600080fd5b61020460048036038101906101ff9190612902565b610614565b604051610211919061294a565b60405180910390f35b610222610626565b60405161022f91906129f5565b60405180910390f35b610252600480360381019061024d9190612a4d565b6106b8565b60405161025f9190612abb565b60405180910390f35b610282600480360381019061027d9190612b02565b6106fe565b005b61028c610815565b005b6102a860048036038101906102a39190612c77565b6108ac565b6040516102b59190612d09565b60405180910390f35b6102d860048036038101906102d39190612d24565b6108c0565b005b6102f460048036038101906102ef9190612dad565b610920565b6040516103019190612de9565b60405180910390f35b610324600480360381019061031f9190612e04565b610940565b005b610340600480360381019061033b9190612e04565b610961565b005b61035c60048036038101906103579190612d24565b6109e4565b005b61037860048036038101906103739190612a4d565b610a04565b604051610385919061294a565b60405180910390f35b6103a860048036038101906103a39190612e44565b610a16565b6040516103b5919061294a565b60405180910390f35b6103d860048036038101906103d39190612a4d565b610a6e565b6040516103e59190612abb565b60405180910390f35b61040860048036038101906104039190612e44565b610af4565b6040516104159190612e80565b60405180910390f35b610426610bab565b005b610430610bbf565b60405161043d9190612abb565b60405180910390f35b610460600480360381019061045b9190612e04565b610be9565b60405161046d919061294a565b60405180910390f35b61047e610c54565b60405161048b91906129f5565b60405180910390f35b6104ae60048036038101906104a99190613012565b610ce6565b005b6104b8610ea7565b6040516104c59190612de9565b60405180910390f35b6104d6610ecb565b6040516104e39190612de9565b60405180910390f35b610506600480360381019061050191906130ad565b610ed2565b005b610522600480360381019061051d9190612c77565b610ee8565b005b61053e60048036038101906105399190612a4d565b610f4a565b60405161054b91906129f5565b60405180910390f35b61055c610fb2565b6040516105699190612de9565b60405180910390f35b61058c60048036038101906105879190612e04565b610fd6565b005b610596610ff7565b6040516105a39190612e80565b60405180910390f35b6105c660048036038101906105c19190612d24565b610ffe565b005b6105e260048036038101906105dd91906130ed565b611039565b6040516105ef919061294a565b60405180910390f35b610612600480360381019061060d9190612e44565b6110cd565b005b600061061f82611150565b9050919050565b6060606580546106359061315c565b80601f01602080910402602001604051908101604052809291908181526020018280546106619061315c565b80156106ae5780601f10610683576101008083540402835291602001916106ae565b820191906000526020600020905b81548152906001019060200180831161069157829003601f168201915b5050505050905090565b60006106c3826111ca565b6069600083815260200190815260200160002060009054906101000a900473ffffffffffffffffffffffffffffffffffffffff169050919050565b600061070982610a6e565b90508073ffffffffffffffffffffffffffffffffffffffff168373ffffffffffffffffffffffffffffffffffffffff1603610779576040517f08c379a0000000000000000000000000000000000000000000000000000000008152600401610770906131ff565b60405180910390fd5b8073ffffffffffffffffffffffffffffffffffffffff16610798611215565b73ffffffffffffffffffffffffffffffffffffffff1614806107c757506107c6816107c1611215565b611039565b5b610806576040517f08c379a00000000000000000000000000000000000000000000000000000000081526004016107fd90613291565b60405180910390fd5b6108108383611224565b505050565b7f9f2df0fed2c77648de5860a4cc508cd0818c85b8b8a1ab4ceeef8d981c8956a661083f816112dd565b600061084c61012d6112f1565b905061012f548110610893576040517f08c379a000000000000000000000000000000000000000000000000000000000815260040161088a906132fd565b60405180910390fd5b61089e61012d6112ff565b6108a83082611315565b5050565b600063150b7a0260e01b9050949350505050565b6108d16108cb611215565b82611333565b610910576040517f08c379a00000000000000000000000000000000000000000000000000000000081526004016109079061338f565b60405180910390fd5b61091b8383836113c8565b505050565b600060976000838152602001908152602001600020600101549050919050565b61094982610920565b610952816112dd565b61095c83836116c1565b505050565b610969611215565b73ffffffffffffffffffffffffffffffffffffffff168173ffffffffffffffffffffffffffffffffffffffff16146109d6576040517f08c379a00000000000000000000000000000000000000000000000000000000081526004016109cd90613421565b60405180910390fd5b6109e082826117a2565b5050565b6109ff83838360405180602001604052806000815250610ee8565b505050565b6000610a0f82611884565b9050919050565b60007f000000000000000000000000000000000000000000000000000000000000000073ffffffffffffffffffffffffffffffffffffffff168273ffffffffffffffffffffffffffffffffffffffff16149050919050565b600080610a7a836118c5565b9050600073ffffffffffffffffffffffffffffffffffffffff168173ffffffffffffffffffffffffffffffffffffffff1603610aeb576040517f08c379a0000000000000000000000000000000000000000000000000000000008152600401610ae29061348d565b60405180910390fd5b80915050919050565b60008073ffffffffffffffffffffffffffffffffffffffff168273ffffffffffffffffffffffffffffffffffffffff1603610b64576040517f08c379a0000000000000000000000000000000000000000000000000000000008152600401610b5b9061351f565b60405180910390fd5b606860008373ffffffffffffffffffffffffffffffffffffffff1673ffffffffffffffffffffffffffffffffffffffff168152602001908152602001600020549050919050565b610bb3611902565b610bbd6000611980565b565b600060c960009054906101000a900473ffffffffffffffffffffffffffffffffffffffff16905090565b60006097600084815260200190815260200160002060000160008373ffffffffffffffffffffffffffffffffffffffff1673ffffffffffffffffffffffffffffffffffffffff16815260200190815260200160002060009054906101000a900460ff16905092915050565b606060668054610c639061315c565b80601f0160208091040260200160405190810160405280929190818152602001828054610c8f9061315c565b8015610cdc5780601f10610cb157610100808354040283529160200191610cdc565b820191906000526020600020905b815481529060010190602001808311610cbf57829003601f168201915b5050505050905090565b60008060019054906101000a900460ff16159050808015610d175750600160008054906101000a900460ff1660ff16105b80610d445750610d2630611a46565b158015610d435750600160008054906101000a900460ff1660ff16145b5b610d83576040517f08c379a0000000000000000000000000000000000000000000000000000000008152600401610d7a906135b1565b60405180910390fd5b60016000806101000a81548160ff021916908360ff1602179055508015610dc0576001600060016101000a81548160ff0219169083151502179055505b610dd282600001518360200151611a69565b610dda611ac6565b610de76000801b856116c1565b610e117f9f2df0fed2c77648de5860a4cc508cd0818c85b8b8a1ab4ceeef8d981c8956a6856116c1565b610e1e6000801b336116c1565b610e2783611980565b816040015161012e9081610e3b919061377d565b50816060015161012f819055508015610ea15760008060016101000a81548160ff0219169083151502179055507f7f26b83ff96e1f2b6a682f133852f6798a09c465da95921460cefb38474024986001604051610e989190613897565b60405180910390a15b50505050565b7f7357d038babf09a64c4d679f7482aea063a18efbb45152aaf1d6531ec032be5381565b6000801b81565b610ee4610edd611215565b8383611b17565b5050565b610ef9610ef3611215565b83611333565b610f38576040517f08c379a0000000000000000000000000000000000000000000000000000000008152600401610f2f9061338f565b60405180910390fd5b610f4484848484611c83565b50505050565b6060610f55826111ca565b6000610f5f611cdf565b90506000815111610f7f5760405180602001604052806000815250610faa565b80610f8984611d72565b604051602001610f9a9291906138ee565b6040516020818303038152906040525b915050919050565b7f9f2df0fed2c77648de5860a4cc508cd0818c85b8b8a1ab4ceeef8d981c8956a681565b610fdf82610920565b610fe8816112dd565b610ff283836117a2565b505050565b61012f5481565b7f7357d038babf09a64c4d679f7482aea063a18efbb45152aaf1d6531ec032be53611028816112dd565b6110338484846113c8565b50505050565b6000606a60008473ffffffffffffffffffffffffffffffffffffffff1673ffffffffffffffffffffffffffffffffffffffff16815260200190815260200160002060008373ffffffffffffffffffffffffffffffffffffffff1673ffffffffffffffffffffffffffffffffffffffff16815260200190815260200160002060009054906101000a900460ff16905092915050565b6110d5611902565b600073ffffffffffffffffffffffffffffffffffffffff168173ffffffffffffffffffffffffffffffffffffffff1603611144576040517f08c379a000000000000000000000000000000000000000000000000000000000815260040161113b90613984565b60405180910390fd5b61114d81611980565b50565b60007f7965db0b000000000000000000000000000000000000000000000000000000007bffffffffffffffffffffffffffffffffffffffffffffffffffffffff1916827bffffffffffffffffffffffffffffffffffffffffffffffffffffffff191614806111c357506111c282611e40565b5b9050919050565b6111d381611884565b611212576040517f08c379a00000000000000000000000000000000000000000000000000000000081526004016112099061348d565b60405180910390fd5b50565b600061121f611f22565b905090565b816069600083815260200190815260200160002060006101000a81548173ffffffffffffffffffffffffffffffffffffffff021916908373ffffffffffffffffffffffffffffffffffffffff160217905550808273ffffffffffffffffffffffffffffffffffffffff1661129783610a6e565b73ffffffffffffffffffffffffffffffffffffffff167f8c5be1e5ebec7d5bd14f71427d1e84f3dd0314c0f7b2291e5b200ac8c7c3b92560405160405180910390a45050565b6112ee816112e9611215565b611f65565b50565b600081600001549050919050565b6001816000016000828254019250508190555050565b61132f828260405180602001604052806000815250611fea565b5050565b60008061133f83610a6e565b90508073ffffffffffffffffffffffffffffffffffffffff168473ffffffffffffffffffffffffffffffffffffffff16148061138157506113808185611039565b5b806113bf57508373ffffffffffffffffffffffffffffffffffffffff166113a7846106b8565b73ffffffffffffffffffffffffffffffffffffffff16145b91505092915050565b8273ffffffffffffffffffffffffffffffffffffffff166113e882610a6e565b73ffffffffffffffffffffffffffffffffffffffff161461143e576040517f08c379a000000000000000000000000000000000000000000000000000000000815260040161143590613a16565b60405180910390fd5b600073ffffffffffffffffffffffffffffffffffffffff168273ffffffffffffffffffffffffffffffffffffffff16036114ad576040517f08c379a00000000000000000000000000000000000000000000000000000000081526004016114a490613aa8565b60405180910390fd5b6114ba8383836001612045565b8273ffffffffffffffffffffffffffffffffffffffff166114da82610a6e565b73ffffffffffffffffffffffffffffffffffffffff1614611530576040517f08c379a000000000000000000000000000000000000000000000000000000000815260040161152790613a16565b60405180910390fd5b6069600082815260200190815260200160002060006101000a81549073ffffffffffffffffffffffffffffffffffffffff02191690556001606860008573ffffffffffffffffffffffffffffffffffffffff1673ffffffffffffffffffffffffffffffffffffffff168152602001908152602001600020600082825403925050819055506001606860008473ffffffffffffffffffffffffffffffffffffffff1673ffffffffffffffffffffffffffffffffffffffff16815260200190815260200160002060008282540192505081905550816067600083815260200190815260200160002060006101000a81548173ffffffffffffffffffffffffffffffffffffffff021916908373ffffffffffffffffffffffffffffffffffffffff160217905550808273ffffffffffffffffffffffffffffffffffffffff168473ffffffffffffffffffffffffffffffffffffffff167fddf252ad1be2c89b69c2b068fc378daa952ba7f163c4a11628f55a4df523b3ef60405160405180910390a46116bc838383600161204b565b505050565b6116cb8282610be9565b61179e5760016097600084815260200190815260200160002060000160008373ffffffffffffffffffffffffffffffffffffffff1673ffffffffffffffffffffffffffffffffffffffff16815260200190815260200160002060006101000a81548160ff021916908315150217905550611743611215565b73ffffffffffffffffffffffffffffffffffffffff168173ffffffffffffffffffffffffffffffffffffffff16837f2f8788117e7eff1d82e926ec794901d17c78024a50270940304540a733656f0d60405160405180910390a45b5050565b6117ac8282610be9565b156118805760006097600084815260200190815260200160002060000160008373ffffffffffffffffffffffffffffffffffffffff1673ffffffffffffffffffffffffffffffffffffffff16815260200190815260200160002060006101000a81548160ff021916908315150217905550611825611215565b73ffffffffffffffffffffffffffffffffffffffff168173ffffffffffffffffffffffffffffffffffffffff16837ff6391f5c32d9c69d2a47ea670b442974b53935d1edc7fd64eb21e047a839171b60405160405180910390a45b5050565b60008073ffffffffffffffffffffffffffffffffffffffff166118a6836118c5565b73ffffffffffffffffffffffffffffffffffffffff1614159050919050565b60006067600083815260200190815260200160002060009054906101000a900473ffffffffffffffffffffffffffffffffffffffff169050919050565b61190a611215565b73ffffffffffffffffffffffffffffffffffffffff16611928610bbf565b73ffffffffffffffffffffffffffffffffffffffff161461197e576040517f08c379a000000000000000000000000000000000000000000000000000000000815260040161197590613b14565b60405180910390fd5b565b600060c960009054906101000a900473ffffffffffffffffffffffffffffffffffffffff1690508160c960006101000a81548173ffffffffffffffffffffffffffffffffffffffff021916908373ffffffffffffffffffffffffffffffffffffffff1602179055508173ffffffffffffffffffffffffffffffffffffffff168173ffffffffffffffffffffffffffffffffffffffff167f8be0079c531659141344cd1fd0a4f28419497f9722a3daafe3b4186f6b6457e060405160405180910390a35050565b6000808273ffffffffffffffffffffffffffffffffffffffff163b119050919050565b600060019054906101000a900460ff16611ab8576040517f08c379a0000000000000000000000000000000000000000000000000000000008152600401611aaf90613ba6565b60405180910390fd5b611ac28282612051565b5050565b600060019054906101000a900460ff16611b15576040517f08c379a0000000000000000000000000000000000000000000000000000000008152600401611b0c90613ba6565b60405180910390fd5b565b8173ffffffffffffffffffffffffffffffffffffffff168373ffffffffffffffffffffffffffffffffffffffff1603611b85576040517f08c379a0000000000000000000000000000000000000000000000000000000008152600401611b7c90613c12565b60405180910390fd5b80606a60008573ffffffffffffffffffffffffffffffffffffffff1673ffffffffffffffffffffffffffffffffffffffff16815260200190815260200160002060008473ffffffffffffffffffffffffffffffffffffffff1673ffffffffffffffffffffffffffffffffffffffff16815260200190815260200160002060006101000a81548160ff0219169083151502179055508173ffffffffffffffffffffffffffffffffffffffff168373ffffffffffffffffffffffffffffffffffffffff167f17307eab39ab6107e8899845ad3d59bd9653f200f220920489ca2b5937696c3183604051611c76919061294a565b60405180910390a3505050565b611c8e8484846113c8565b611c9a848484846120c4565b611cd9576040517f08c379a0000000000000000000000000000000000000000000000000000000008152600401611cd090613ca4565b60405180910390fd5b50505050565b606061012e8054611cef9061315c565b80601f0160208091040260200160405190810160405280929190818152602001828054611d1b9061315c565b8015611d685780601f10611d3d57610100808354040283529160200191611d68565b820191906000526020600020905b815481529060010190602001808311611d4b57829003601f168201915b5050505050905090565b606060006001611d818461224b565b01905060008167ffffffffffffffff811115611da057611d9f612b4c565b5b6040519080825280601f01601f191660200182016040528015611dd25781602001600182028036833780820191505090505b509050600082602001820190505b600115611e35578080600190039150507f3031323334353637383961626364656600000000000000000000000000000000600a86061a8153600a8581611e2957611e28613cc4565b5b04945060008503611de0575b819350505050919050565b60007f80ac58cd000000000000000000000000000000000000000000000000000000007bffffffffffffffffffffffffffffffffffffffffffffffffffffffff1916827bffffffffffffffffffffffffffffffffffffffffffffffffffffffff19161480611f0b57507f5b5e139f000000000000000000000000000000000000000000000000000000007bffffffffffffffffffffffffffffffffffffffffffffffffffffffff1916827bffffffffffffffffffffffffffffffffffffffffffffffffffffffff1916145b80611f1b5750611f1a8261239e565b5b9050919050565b6000611f2d33610a16565b8015611f3e57506014600036905010155b15611f5257601436033560601c9050611f61565b611f5a612408565b9050611f62565b5b90565b611f6f8282610be9565b611fe657611f7c81612410565b611f8a8360001c602061243d565b604051602001611f9b929190613d8b565b6040516020818303038152906040526040517f08c379a0000000000000000000000000000000000000000000000000000000008152600401611fdd91906129f5565b60405180910390fd5b5050565b611ff48383612679565b61200160008484846120c4565b612040576040517f08c379a000000000000000000000000000000000000000000000000000000000815260040161203790613ca4565b60405180910390fd5b505050565b50505050565b50505050565b600060019054906101000a900460ff166120a0576040517f08c379a000000000000000000000000000000000000000000000000000000000815260040161209790613ba6565b60405180910390fd5b81606590816120af919061377d565b5080606690816120bf919061377d565b505050565b60006120e58473ffffffffffffffffffffffffffffffffffffffff16611a46565b1561223e578373ffffffffffffffffffffffffffffffffffffffff1663150b7a0261210e611215565b8786866040518563ffffffff1660e01b81526004016121309493929190613e1a565b6020604051808303816000875af192505050801561216c57506040513d601f19601f820116820180604052508101906121699190613e7b565b60015b6121ee573d806000811461219c576040519150601f19603f3d011682016040523d82523d6000602084013e6121a1565b606091505b5060008151036121e6576040517f08c379a00000000000000000000000000000000000000000000000000000000081526004016121dd90613ca4565b60405180910390fd5b805181602001fd5b63150b7a0260e01b7bffffffffffffffffffffffffffffffffffffffffffffffffffffffff1916817bffffffffffffffffffffffffffffffffffffffffffffffffffffffff191614915050612243565b600190505b949350505050565b600080600090507a184f03e93ff9f4daa797ed6e38ed64bf6a1f01000000000000000083106122a9577a184f03e93ff9f4daa797ed6e38ed64bf6a1f010000000000000000838161229f5761229e613cc4565b5b0492506040810190505b6d04ee2d6d415b85acef810000000083106122e6576d04ee2d6d415b85acef810000000083816122dc576122db613cc4565b5b0492506020810190505b662386f26fc10000831061231557662386f26fc10000838161230b5761230a613cc4565b5b0492506010810190505b6305f5e100831061233e576305f5e100838161233457612333613cc4565b5b0492506008810190505b612710831061236357612710838161235957612358613cc4565b5b0492506004810190505b60648310612386576064838161237c5761237b613cc4565b5b0492506002810190505b600a8310612395576001810190505b80915050919050565b60007f01ffc9a7000000000000000000000000000000000000000000000000000000007bffffffffffffffffffffffffffffffffffffffffffffffffffffffff1916827bffffffffffffffffffffffffffffffffffffffffffffffffffffffff1916149050919050565b600033905090565b60606124368273ffffffffffffffffffffffffffffffffffffffff16601460ff1661243d565b9050919050565b6060600060028360026124509190613ed7565b61245a9190613f19565b67ffffffffffffffff81111561247357612472612b4c565b5b6040519080825280601f01601f1916602001820160405280156124a55781602001600182028036833780820191505090505b5090507f3000000000000000000000000000000000000000000000000000000000000000816000815181106124dd576124dc613f4d565b5b60200101907effffffffffffffffffffffffffffffffffffffffffffffffffffffffffffff1916908160001a9053507f78000000000000000000000000000000000000000000000000000000000000008160018151811061254157612540613f4d565b5b60200101907effffffffffffffffffffffffffffffffffffffffffffffffffffffffffffff1916908160001a905350600060018460026125819190613ed7565b61258b9190613f19565b90505b600181111561262b577f3031323334353637383961626364656600000000000000000000000000000000600f8616601081106125cd576125cc613f4d565b5b1a60f81b8282815181106125e4576125e3613f4d565b5b60200101907effffffffffffffffffffffffffffffffffffffffffffffffffffffffffffff1916908160001a905350600485901c94508061262490613f7c565b905061258e565b506000841461266f576040517f08c379a000000000000000000000000000000000000000000000000000000000815260040161266690613ff1565b60405180910390fd5b8091505092915050565b600073ffffffffffffffffffffffffffffffffffffffff168273ffffffffffffffffffffffffffffffffffffffff16036126e8576040517f08c379a00000000000000000000000000000000000000000000000000000000081526004016126df9061405d565b60405180910390fd5b6126f181611884565b15612731576040517f08c379a0000000000000000000000000000000000000000000000000000000008152600401612728906140c9565b60405180910390fd5b61273f600083836001612045565b61274881611884565b15612788576040517f08c379a000000000000000000000000000000000000000000000000000000000815260040161277f906140c9565b60405180910390fd5b6001606860008473ffffffffffffffffffffffffffffffffffffffff1673ffffffffffffffffffffffffffffffffffffffff16815260200190815260200160002060008282540192505081905550816067600083815260200190815260200160002060006101000a81548173ffffffffffffffffffffffffffffffffffffffff021916908373ffffffffffffffffffffffffffffffffffffffff160217905550808273ffffffffffffffffffffffffffffffffffffffff16600073ffffffffffffffffffffffffffffffffffffffff167fddf252ad1be2c89b69c2b068fc378daa952ba7f163c4a11628f55a4df523b3ef60405160405180910390a461289260008383600161204b565b5050565b6000604051905090565b600080fd5b600080fd5b60007fffffffff0000000000000000000000000000000000000000000000000000000082169050919050565b6128df816128aa565b81146128ea57600080fd5b50565b6000813590506128fc816128d6565b92915050565b600060208284031215612918576129176128a0565b5b6000612926848285016128ed565b91505092915050565b60008115159050919050565b6129448161292f565b82525050565b600060208201905061295f600083018461293b565b92915050565b600081519050919050565b600082825260208201905092915050565b60005b8381101561299f578082015181840152602081019050612984565b60008484015250505050565b6000601f19601f8301169050919050565b60006129c782612965565b6129d18185612970565b93506129e1818560208601612981565b6129ea816129ab565b840191505092915050565b60006020820190508181036000830152612a0f81846129bc565b905092915050565b6000819050919050565b612a2a81612a17565b8114612a3557600080fd5b50565b600081359050612a4781612a21565b92915050565b600060208284031215612a6357612a626128a0565b5b6000612a7184828501612a38565b91505092915050565b600073ffffffffffffffffffffffffffffffffffffffff82169050919050565b6000612aa582612a7a565b9050919050565b612ab581612a9a565b82525050565b6000602082019050612ad06000830184612aac565b92915050565b612adf81612a9a565b8114612aea57600080fd5b50565b600081359050612afc81612ad6565b92915050565b60008060408385031215612b1957612b186128a0565b5b6000612b2785828601612aed565b9250506020612b3885828601612a38565b9150509250929050565b600080fd5b600080fd5b7f4e487b7100000000000000000000000000000000000000000000000000000000600052604160045260246000fd5b612b84826129ab565b810181811067ffffffffffffffff82111715612ba357612ba2612b4c565b5b80604052505050565b6000612bb6612896565b9050612bc28282612b7b565b919050565b600067ffffffffffffffff821115612be257612be1612b4c565b5b612beb826129ab565b9050602081019050919050565b82818337600083830152505050565b6000612c1a612c1584612bc7565b612bac565b905082815260208101848484011115612c3657612c35612b47565b5b612c41848285612bf8565b509392505050565b600082601f830112612c5e57612c5d612b42565b5b8135612c6e848260208601612c07565b91505092915050565b60008060008060808587031215612c9157612c906128a0565b5b6000612c9f87828801612aed565b9450506020612cb087828801612aed565b9350506040612cc187828801612a38565b925050606085013567ffffffffffffffff811115612ce257612ce16128a5565b5b612cee87828801612c49565b91505092959194509250565b612d03816128aa565b82525050565b6000602082019050612d1e6000830184612cfa565b92915050565b600080600060608486031215612d3d57612d3c6128a0565b5b6000612d4b86828701612aed565b9350506020612d5c86828701612aed565b9250506040612d6d86828701612a38565b9150509250925092565b6000819050919050565b612d8a81612d77565b8114612d9557600080fd5b50565b600081359050612da781612d81565b92915050565b600060208284031215612dc357612dc26128a0565b5b6000612dd184828501612d98565b91505092915050565b612de381612d77565b82525050565b6000602082019050612dfe6000830184612dda565b92915050565b60008060408385031215612e1b57612e1a6128a0565b5b6000612e2985828601612d98565b9250506020612e3a85828601612aed565b9150509250929050565b600060208284031215612e5a57612e596128a0565b5b6000612e6884828501612aed565b91505092915050565b612e7a81612a17565b82525050565b6000602082019050612e956000830184612e71565b92915050565b600080fd5b600080fd5b600067ffffffffffffffff821115612ec057612ebf612b4c565b5b612ec9826129ab565b9050602081019050919050565b6000612ee9612ee484612ea5565b612bac565b905082815260208101848484011115612f0557612f04612b47565b5b612f10848285612bf8565b509392505050565b600082601f830112612f2d57612f2c612b42565b5b8135612f3d848260208601612ed6565b91505092915050565b600060808284031215612f5c57612f5b612e9b565b5b612f666080612bac565b9050600082013567ffffffffffffffff811115612f8657612f85612ea0565b5b612f9284828501612f18565b600083015250602082013567ffffffffffffffff811115612fb657612fb5612ea0565b5b612fc284828501612f18565b602083015250604082013567ffffffffffffffff811115612fe657612fe5612ea0565b5b612ff284828501612f18565b604083015250606061300684828501612a38565b60608301525092915050565b60008060006060848603121561302b5761302a6128a0565b5b600061303986828701612aed565b935050602061304a86828701612aed565b925050604084013567ffffffffffffffff81111561306b5761306a6128a5565b5b61307786828701612f46565b9150509250925092565b61308a8161292f565b811461309557600080fd5b50565b6000813590506130a781613081565b92915050565b600080604083850312156130c4576130c36128a0565b5b60006130d285828601612aed565b92505060206130e385828601613098565b9150509250929050565b60008060408385031215613104576131036128a0565b5b600061311285828601612aed565b925050602061312385828601612aed565b9150509250929050565b7f4e487b7100000000000000000000000000000000000000000000000000000000600052602260045260246000fd5b6000600282049050600182168061317457607f821691505b6020821081036131875761318661312d565b5b50919050565b7f4552433732313a20617070726f76616c20746f2063757272656e74206f776e6560008201527f7200000000000000000000000000000000000000000000000000000000000000602082015250565b60006131e9602183612970565b91506131f48261318d565b604082019050919050565b60006020820190508181036000830152613218816131dc565b9050919050565b7f4552433732313a20617070726f76652063616c6c6572206973206e6f7420746f60008201527f6b656e206f776e6572206f7220617070726f76656420666f7220616c6c000000602082015250565b600061327b603d83612970565b91506132868261321f565b604082019050919050565b600060208201905081810360008301526132aa8161326e565b9050919050565b7f53324f4e46543a206d617820737570706c792072656163686564000000000000600082015250565b60006132e7601a83612970565b91506132f2826132b1565b602082019050919050565b60006020820190508181036000830152613316816132da565b9050919050565b7f4552433732313a2063616c6c6572206973206e6f7420746f6b656e206f776e6560008201527f72206f7220617070726f76656400000000000000000000000000000000000000602082015250565b6000613379602d83612970565b91506133848261331d565b604082019050919050565b600060208201905081810360008301526133a88161336c565b9050919050565b7f416363657373436f6e74726f6c3a2063616e206f6e6c792072656e6f756e636560008201527f20726f6c657320666f722073656c660000000000000000000000000000000000602082015250565b600061340b602f83612970565b9150613416826133af565b604082019050919050565b6000602082019050818103600083015261343a816133fe565b9050919050565b7f4552433732313a20696e76616c696420746f6b656e2049440000000000000000600082015250565b6000613477601883612970565b915061348282613441565b602082019050919050565b600060208201905081810360008301526134a68161346a565b9050919050565b7f4552433732313a2061646472657373207a65726f206973206e6f74206120766160008201527f6c6964206f776e65720000000000000000000000000000000000000000000000602082015250565b6000613509602983612970565b9150613514826134ad565b604082019050919050565b60006020820190508181036000830152613538816134fc565b9050919050565b7f496e697469616c697a61626c653a20636f6e747261637420697320616c72656160008201527f647920696e697469616c697a6564000000000000000000000000000000000000602082015250565b600061359b602e83612970565b91506135a68261353f565b604082019050919050565b600060208201905081810360008301526135ca8161358e565b9050919050565b60008190508160005260206000209050919050565b60006020601f8301049050919050565b600082821b905092915050565b6000600883026136337fffffffffffffffffffffffffffffffffffffffffffffffffffffffffffffffff826135f6565b61363d86836135f6565b95508019841693508086168417925050509392505050565b6000819050919050565b600061367a61367561367084612a17565b613655565b612a17565b9050919050565b6000819050919050565b6136948361365f565b6136a86136a082613681565b848454613603565b825550505050565b600090565b6136bd6136b0565b6136c881848461368b565b505050565b5b818110156136ec576136e16000826136b5565b6001810190506136ce565b5050565b601f82111561373157613702816135d1565b61370b846135e6565b8101602085101561371a578190505b61372e613726856135e6565b8301826136cd565b50505b505050565b600082821c905092915050565b600061375460001984600802613736565b1980831691505092915050565b600061376d8383613743565b9150826002028217905092915050565b61378682612965565b67ffffffffffffffff81111561379f5761379e612b4c565b5b6137a9825461315c565b6137b48282856136f0565b600060209050601f8311600181146137e757600084156137d5578287015190505b6137df8582613761565b865550613847565b601f1984166137f5866135d1565b60005b8281101561381d578489015182556001820191506020850194506020810190506137f8565b8683101561383a5784890151613836601f891682613743565b8355505b6001600288020188555050505b505050505050565b6000819050919050565b600060ff82169050919050565b600061388161387c6138778461384f565b613655565b613859565b9050919050565b61389181613866565b82525050565b60006020820190506138ac6000830184613888565b92915050565b600081905092915050565b60006138c882612965565b6138d281856138b2565b93506138e2818560208601612981565b80840191505092915050565b60006138fa82856138bd565b915061390682846138bd565b91508190509392505050565b7f4f776e61626c653a206e6577206f776e657220697320746865207a65726f206160008201527f6464726573730000000000000000000000000000000000000000000000000000602082015250565b600061396e602683612970565b915061397982613912565b604082019050919050565b6000602082019050818103600083015261399d81613961565b9050919050565b7f4552433732313a207472616e736665722066726f6d20696e636f72726563742060008201527f6f776e6572000000000000000000000000000000000000000000000000000000602082015250565b6000613a00602583612970565b9150613a0b826139a4565b604082019050919050565b60006020820190508181036000830152613a2f816139f3565b9050919050565b7f4552433732313a207472616e7366657220746f20746865207a65726f2061646460008201527f7265737300000000000000000000000000000000000000000000000000000000602082015250565b6000613a92602483612970565b9150613a9d82613a36565b604082019050919050565b60006020820190508181036000830152613ac181613a85565b9050919050565b7f4f776e61626c653a2063616c6c6572206973206e6f7420746865206f776e6572600082015250565b6000613afe602083612970565b9150613b0982613ac8565b602082019050919050565b60006020820190508181036000830152613b2d81613af1565b9050919050565b7f496e697469616c697a61626c653a20636f6e7472616374206973206e6f74206960008201527f6e697469616c697a696e67000000000000000000000000000000000000000000602082015250565b6000613b90602b83612970565b9150613b9b82613b34565b604082019050919050565b60006020820190508181036000830152613bbf81613b83565b9050919050565b7f4552433732313a20617070726f766520746f2063616c6c657200000000000000600082015250565b6000613bfc601983612970565b9150613c0782613bc6565b602082019050919050565b60006020820190508181036000830152613c2b81613bef565b9050919050565b7f4552433732313a207472616e7366657220746f206e6f6e20455243373231526560008201527f63656976657220696d706c656d656e7465720000000000000000000000000000602082015250565b6000613c8e603283612970565b9150613c9982613c32565b604082019050919050565b60006020820190508181036000830152613cbd81613c81565b9050919050565b7f4e487b7100000000000000000000000000000000000000000000000000000000600052601260045260246000fd5b7f416363657373436f6e74726f6c3a206163636f756e7420000000000000000000600082015250565b6000613d296017836138b2565b9150613d3482613cf3565b601782019050919050565b7f206973206d697373696e6720726f6c6520000000000000000000000000000000600082015250565b6000613d756011836138b2565b9150613d8082613d3f565b601182019050919050565b6000613d9682613d1c565b9150613da282856138bd565b9150613dad82613d68565b9150613db982846138bd565b91508190509392505050565b600081519050919050565b600082825260208201905092915050565b6000613dec82613dc5565b613df68185613dd0565b9350613e06818560208601612981565b613e0f816129ab565b840191505092915050565b6000608082019050613e2f6000830187612aac565b613e3c6020830186612aac565b613e496040830185612e71565b8181036060830152613e5b8184613de1565b905095945050505050565b600081519050613e75816128d6565b92915050565b600060208284031215613e9157613e906128a0565b5b6000613e9f84828501613e66565b91505092915050565b7f4e487b7100000000000000000000000000000000000000000000000000000000600052601160045260246000fd5b6000613ee282612a17565b9150613eed83612a17565b9250828202613efb81612a17565b91508282048414831517613f1257613f11613ea8565b5b5092915050565b6000613f2482612a17565b9150613f2f83612a17565b9250828201905080821115613f4757613f46613ea8565b5b92915050565b7f4e487b7100000000000000000000000000000000000000000000000000000000600052603260045260246000fd5b6000613f8782612a17565b915060008203613f9a57613f99613ea8565b5b600182039050919050565b7f537472696e67733a20686578206c656e67746820696e73756666696369656e74600082015250565b6000613fdb602083612970565b9150613fe682613fa5565b602082019050919050565b6000602082019050818103600083015261400a81613fce565b9050919050565b7f4552433732313a206d696e7420746f20746865207a65726f2061646472657373600082015250565b6000614047602083612970565b915061405282614011565b602082019050919050565b600060208201905081810360008301526140768161403a565b9050919050565b7f4552433732313a20746f6b656e20616c7265616479206d696e74656400000000600082015250565b60006140b3601c83612970565b91506140be8261407d565b602082019050919050565b600060208201905081810360008301526140e2816140a6565b905091905056fea2646970667358221220bed8a3ce4448cf7265163ae596d6c80d4ab28e6036d61da758f980b51220da2b64736f6c63430008130033",
  "linkReferences": {},
  "deployedLinkReferences": {}
}