{
  "_format": "hh-sol-artifact-1",
  "contractName": "S2OSuperApp",
  "sourceName": "contracts/S2OSuperApp.sol",
  "abi": [
    {
      "inputs": [],
      "stateMutability": "nonpayable",
      "type": "constructor"
    },
    {
      "anonymous": false,
      "inputs": [
        {
          "indexed": false,
          "internalType": "uint8",
          "name": "version",
          "type": "uint8"
        }
      ],
      "name": "Initialized",
      "type": "event"
    },
    {
      "anonymous": false,
      "inputs": [
        {
          "indexed": true,
          "internalType": "bytes32",
          "name": "role",
          "type": "bytes32"
        },
        {
          "indexed": true,
          "internalType": "bytes32",
          "name": "previousAdminRole",
          "type": "bytes32"
        },
        {
          "indexed": true,
          "internalType": "bytes32",
          "name": "newAdminRole",
          "type": "bytes32"
        }
      ],
      "name": "RoleAdminChanged",
      "type": "event"
    },
    {
      "anonymous": false,
      "inputs": [
        {
          "indexed": true,
          "internalType": "bytes32",
          "name": "role",
          "type": "bytes32"
        },
        {
          "indexed": true,
          "internalType": "address",
          "name": "account",
          "type": "address"
        },
        {
          "indexed": true,
          "internalType": "address",
          "name": "sender",
          "type": "address"
        }
      ],
      "name": "RoleGranted",
      "type": "event"
    },
    {
      "anonymous": false,
      "inputs": [
        {
          "indexed": true,
          "internalType": "bytes32",
          "name": "role",
          "type": "bytes32"
        },
        {
          "indexed": true,
          "internalType": "address",
          "name": "account",
          "type": "address"
        },
        {
          "indexed": true,
          "internalType": "address",
          "name": "sender",
          "type": "address"
        }
      ],
      "name": "RoleRevoked",
      "type": "event"
    },
    {
      "inputs": [],
      "name": "DEFAULT_ADMIN_ROLE",
      "outputs": [
        {
          "internalType": "bytes32",
          "name": "",
          "type": "bytes32"
        }
      ],
      "stateMutability": "view",
      "type": "function"
    },
    {
      "inputs": [],
      "name": "MANAGER",
      "outputs": [
        {
          "internalType": "bytes32",
          "name": "",
          "type": "bytes32"
        }
      ],
      "stateMutability": "view",
      "type": "function"
    },
    {
      "inputs": [],
      "name": "acceptedToken",
      "outputs": [
        {
          "internalType": "address",
          "name": "",
          "type": "address"
        }
      ],
      "stateMutability": "view",
      "type": "function"
    },
    {
      "inputs": [
        {
          "internalType": "contract ISuperToken",
          "name": "_superToken",
          "type": "address"
        },
        {
          "internalType": "address",
          "name": "_agreementClass",
          "type": "address"
        },
        {
          "internalType": "bytes32",
          "name": "_agreementId",
          "type": "bytes32"
        },
        {
          "internalType": "bytes",
          "name": "_agreementData",
          "type": "bytes"
        },
        {
          "internalType": "bytes",
          "name": "",
          "type": "bytes"
        },
        {
          "internalType": "bytes",
          "name": "_ctx",
          "type": "bytes"
        }
      ],
      "name": "afterAgreementCreated",
      "outputs": [
        {
          "internalType": "bytes",
          "name": "newCtx",
          "type": "bytes"
        }
      ],
      "stateMutability": "nonpayable",
      "type": "function"
    },
    {
      "inputs": [
        {
          "internalType": "contract ISuperToken",
          "name": "_superToken",
          "type": "address"
        },
        {
          "internalType": "address",
          "name": "_agreementClass",
          "type": "address"
        },
        {
          "internalType": "bytes32",
          "name": "",
          "type": "bytes32"
        },
        {
          "internalType": "bytes",
          "name": "_agreementData",
          "type": "bytes"
        },
        {
          "internalType": "bytes",
          "name": "",
          "type": "bytes"
        },
        {
          "internalType": "bytes",
          "name": "_ctx",
          "type": "bytes"
        }
      ],
      "name": "afterAgreementTerminated",
      "outputs": [
        {
          "internalType": "bytes",
          "name": "newCtx",
          "type": "bytes"
        }
      ],
      "stateMutability": "nonpayable",
      "type": "function"
    },
    {
      "inputs": [
        {
          "internalType": "contract ISuperToken",
          "name": "_superToken",
          "type": "address"
        },
        {
          "internalType": "address",
          "name": "_agreementClass",
          "type": "address"
        },
        {
          "internalType": "bytes32",
          "name": "_agreementId",
          "type": "bytes32"
        },
        {
          "internalType": "bytes",
          "name": "_agreementData",
          "type": "bytes"
        },
        {
          "internalType": "bytes",
          "name": "",
          "type": "bytes"
        },
        {
          "internalType": "bytes",
          "name": "_ctx",
          "type": "bytes"
        }
      ],
      "name": "afterAgreementUpdated",
      "outputs": [
        {
          "internalType": "bytes",
          "name": "newCtx",
          "type": "bytes"
        }
      ],
      "stateMutability": "nonpayable",
      "type": "function"
    },
    {
      "inputs": [
        {
          "internalType": "contract ISuperToken",
          "name": "",
          "type": "address"
        },
        {
          "internalType": "address",
          "name": "",
          "type": "address"
        },
        {
          "internalType": "bytes32",
          "name": "",
          "type": "bytes32"
        },
        {
          "internalType": "bytes",
          "name": "",
          "type": "bytes"
        },
        {
          "internalType": "bytes",
          "name": "",
          "type": "bytes"
        }
      ],
      "name": "beforeAgreementCreated",
      "outputs": [
        {
          "internalType": "bytes",
          "name": "",
          "type": "bytes"
        }
      ],
      "stateMutability": "view",
      "type": "function"
    },
    {
      "inputs": [
        {
          "internalType": "contract ISuperToken",
          "name": "",
          "type": "address"
        },
        {
          "internalType": "address",
          "name": "",
          "type": "address"
        },
        {
          "internalType": "bytes32",
          "name": "",
          "type": "bytes32"
        },
        {
          "internalType": "bytes",
          "name": "",
          "type": "bytes"
        },
        {
          "internalType": "bytes",
          "name": "",
          "type": "bytes"
        }
      ],
      "name": "beforeAgreementTerminated",
      "outputs": [
        {
          "internalType": "bytes",
          "name": "",
          "type": "bytes"
        }
      ],
      "stateMutability": "view",
      "type": "function"
    },
    {
      "inputs": [
        {
          "internalType": "contract ISuperToken",
          "name": "",
          "type": "address"
        },
        {
          "internalType": "address",
          "name": "",
          "type": "address"
        },
        {
          "internalType": "bytes32",
          "name": "",
          "type": "bytes32"
        },
        {
          "internalType": "bytes",
          "name": "",
          "type": "bytes"
        },
        {
          "internalType": "bytes",
          "name": "",
          "type": "bytes"
        }
      ],
      "name": "beforeAgreementUpdated",
      "outputs": [
        {
          "internalType": "bytes",
          "name": "",
          "type": "bytes"
        }
      ],
      "stateMutability": "view",
      "type": "function"
    },
    {
      "inputs": [],
      "name": "cfaV1",
      "outputs": [
        {
          "internalType": "contract ISuperfluid",
          "name": "host",
          "type": "address"
        },
        {
          "internalType": "contract IConstantFlowAgreementV1",
          "name": "cfa",
          "type": "address"
        }
      ],
      "stateMutability": "view",
      "type": "function"
    },
    {
      "inputs": [],
      "name": "feeRecipient",
      "outputs": [
        {
          "internalType": "address",
          "name": "",
          "type": "address"
        }
      ],
      "stateMutability": "view",
      "type": "function"
    },
    {
      "inputs": [
        {
          "internalType": "bytes32",
          "name": "role",
          "type": "bytes32"
        }
      ],
      "name": "getRoleAdmin",
      "outputs": [
        {
          "internalType": "bytes32",
          "name": "",
          "type": "bytes32"
        }
      ],
      "stateMutability": "view",
      "type": "function"
    },
    {
      "inputs": [
        {
          "internalType": "bytes32",
          "name": "role",
          "type": "bytes32"
        },
        {
          "internalType": "address",
          "name": "account",
          "type": "address"
        }
      ],
      "name": "grantRole",
      "outputs": [],
      "stateMutability": "nonpayable",
      "type": "function"
    },
    {
      "inputs": [
        {
          "internalType": "bytes32",
          "name": "role",
          "type": "bytes32"
        },
        {
          "internalType": "address",
          "name": "account",
          "type": "address"
        }
      ],
      "name": "hasRole",
      "outputs": [
        {
          "internalType": "bool",
          "name": "",
          "type": "bool"
        }
      ],
      "stateMutability": "view",
      "type": "function"
    },
    {
      "inputs": [
        {
          "internalType": "address",
          "name": "_admin",
          "type": "address"
        },
        {
          "internalType": "address",
          "name": "_beneficiary",
          "type": "address"
        },
        {
          "internalType": "address",
          "name": "_feeRecipient",
          "type": "address"
        },
        {
          "internalType": "address",
          "name": "_superToken",
          "type": "address"
        },
        {
          "internalType": "address",
          "name": "host",
          "type": "address"
        },
        {
          "internalType": "address",
          "name": "cfa",
          "type": "address"
        },
        {
          "internalType": "address",
          "name": "_nftContract",
          "type": "address"
        },
        {
          "components": [
            {
              "internalType": "int96",
              "name": "minFlowRate",
              "type": "int96"
            },
            {
              "internalType": "int96",
              "name": "minIncrement",
              "type": "int96"
            },
            {
              "internalType": "int96",
              "name": "protocolFeePercent",
              "type": "int96"
            },
            {
              "internalType": "int96",
              "name": "previousOwnerFeePercent",
              "type": "int96"
            }
          ],
          "internalType": "struct S2OSuperApp.Settings",
          "name": "_settings",
          "type": "tuple"
        }
      ],
      "name": "initialize",
      "outputs": [],
      "stateMutability": "nonpayable",
      "type": "function"
    },
    {
      "inputs": [
        {
          "internalType": "address",
          "name": "forwarder",
          "type": "address"
        }
      ],
      "name": "isTrustedForwarder",
      "outputs": [
        {
          "internalType": "bool",
          "name": "",
          "type": "bool"
        }
      ],
      "stateMutability": "view",
      "type": "function"
    },
    {
      "inputs": [],
      "name": "nftContract",
      "outputs": [
        {
          "internalType": "contract S2ONFT",
          "name": "",
          "type": "address"
        }
      ],
      "stateMutability": "view",
      "type": "function"
    },
    {
      "inputs": [
        {
          "internalType": "bytes32",
          "name": "role",
          "type": "bytes32"
        },
        {
          "internalType": "address",
          "name": "account",
          "type": "address"
        }
      ],
      "name": "renounceRole",
      "outputs": [],
      "stateMutability": "nonpayable",
      "type": "function"
    },
    {
      "inputs": [
        {
          "internalType": "bytes32",
          "name": "role",
          "type": "bytes32"
        },
        {
          "internalType": "address",
          "name": "account",
          "type": "address"
        }
      ],
      "name": "revokeRole",
      "outputs": [],
      "stateMutability": "nonpayable",
      "type": "function"
    },
    {
      "inputs": [
        {
          "internalType": "address",
          "name": "_feeRecipient",
          "type": "address"
        }
      ],
      "name": "setFeeRecipient",
      "outputs": [],
      "stateMutability": "nonpayable",
      "type": "function"
    },
    {
      "inputs": [],
      "name": "settings",
      "outputs": [
        {
          "internalType": "int96",
          "name": "minFlowRate",
          "type": "int96"
        },
        {
          "internalType": "int96",
          "name": "minIncrement",
          "type": "int96"
        },
        {
          "internalType": "int96",
          "name": "protocolFeePercent",
          "type": "int96"
        },
        {
          "internalType": "int96",
          "name": "previousOwnerFeePercent",
          "type": "int96"
        }
      ],
      "stateMutability": "view",
      "type": "function"
    },
    {
      "inputs": [
        {
          "internalType": "bytes4",
          "name": "interfaceId",
          "type": "bytes4"
        }
      ],
      "name": "supportsInterface",
      "outputs": [
        {
          "internalType": "bool",
          "name": "",
          "type": "bool"
        }
      ],
      "stateMutability": "view",
      "type": "function"
    },
    {
      "inputs": [
        {
          "internalType": "uint256",
          "name": "",
          "type": "uint256"
        }
      ],
      "name": "tokenFlows",
      "outputs": [
        {
          "internalType": "int96",
          "name": "flowRate",
          "type": "int96"
        },
        {
          "internalType": "uint256",
          "name": "lastUpdated",
          "type": "uint256"
        },
        {
          "internalType": "address",
          "name": "owner",
          "type": "address"
        },
        {
          "internalType": "address",
          "name": "previousOwner",
          "type": "address"
        }
      ],
      "stateMutability": "view",
      "type": "function"
    },
    {
      "inputs": [
        {
          "internalType": "address",
          "name": "",
          "type": "address"
        }
      ],
      "name": "tokenIds",
      "outputs": [
        {
          "internalType": "uint256",
          "name": "",
          "type": "uint256"
        }
      ],
      "stateMutability": "view",
      "type": "function"
    },
    {
      "inputs": [
        {
          "internalType": "address",
          "name": "",
          "type": "address"
        },
        {
          "internalType": "address",
          "name": "",
          "type": "address"
        },
        {
          "internalType": "address",
          "name": "",
          "type": "address"
        },
        {
          "internalType": "uint256",
          "name": "",
          "type": "uint256"
        },
        {
          "internalType": "bytes",
          "name": "",
          "type": "bytes"
        },
        {
          "internalType": "bytes",
          "name": "",
          "type": "bytes"
        }
      ],
      "name": "tokensReceived",
      "outputs": [],
      "stateMutability": "nonpayable",
      "type": "function"
    }
  ],
  "bytecode": "0x60a06040523480156200001157600080fd5b5073bf175fcc7086b4f9bd59d5eae8ea67b8f940de0d8073ffffffffffffffffffffffffffffffffffffffff1660808173ffffffffffffffffffffffffffffffffffffffff1681525050506200006c6200007260201b60201c565b6200021c565b600060019054906101000a900460ff1615620000c5576040517f08c379a0000000000000000000000000000000000000000000000000000000008152600401620000bc90620001bf565b60405180910390fd5b60ff801660008054906101000a900460ff1660ff1614620001365760ff6000806101000a81548160ff021916908360ff1602179055507f7f26b83ff96e1f2b6a682f133852f6798a09c465da95921460cefb384740249860ff6040516200012d9190620001ff565b60405180910390a15b565b600082825260208201905092915050565b7f496e697469616c697a61626c653a20636f6e747261637420697320696e69746960008201527f616c697a696e6700000000000000000000000000000000000000000000000000602082015250565b6000620001a760278362000138565b9150620001b48262000149565b604082019050919050565b60006020820190508181036000830152620001da8162000198565b9050919050565b600060ff82169050919050565b620001f981620001e1565b82525050565b6000602082019050620002166000830184620001ee565b92915050565b608051615708620002386000396000610e5801526157086000f3fe608060405234801561001057600080fd5b50600436106101725760003560e01c8063572b6c05116100de578063d3112b2e11610097578063d86ed3e511610071578063d86ed3e51461049b578063e06174e4146104cb578063e74b981b146104ec578063fc97a3031461050857610172565b8063d3112b2e14610442578063d547741f14610461578063d56d229d1461047d57610172565b8063572b6c05146103485780635f9e7d7714610378578063884d1f40146103a857806391d14854146103d8578063a217fddf14610408578063ae292d991461042657610172565b80632f2ff15d116101305780632f2ff15d1461027457806330d9c9151461029057806336568abe146102c0578063451c3d80146102dc57806346904840146102fa57806353c11f991461031857610172565b806223de291461017757806301ffc9a71461019357806310f6de59146101c35780631b2df850146101f6578063230dbd2914610214578063248a9ca314610244575b600080fd5b610191600480360381019061018c9190613964565b610538565b005b6101ad60048036038101906101a89190613a8b565b610542565b6040516101ba9190613ad3565b60405180910390f35b6101dd60048036038101906101d89190613aee565b6105bc565b6040516101ed9493929190613b55565b60405180910390f35b6101fe610639565b60405161020b9190613bb3565b60405180910390f35b61022e60048036038101906102299190613c38565b61065d565b60405161023b9190613db7565b60405180910390f35b61025e60048036038101906102599190613dd9565b610a28565b60405161026b9190613bb3565b60405180910390f35b61028e60048036038101906102899190613e06565b610a48565b005b6102aa60048036038101906102a59190613e46565b610a69565b6040516102b79190613db7565b60405180910390f35b6102da60048036038101906102d59190613e06565b610aa6565b005b6102e4610b29565b6040516102f19190613f02565b60405180910390f35b610302610b53565b60405161030f9190613f02565b60405180910390f35b610332600480360381019061032d9190613c38565b610b79565b60405161033f9190613db7565b60405180910390f35b610362600480360381019061035d9190613f1d565b610e54565b60405161036f9190613ad3565b60405180910390f35b610392600480360381019061038d9190613e46565b610eac565b60405161039f9190613db7565b60405180910390f35b6103c260048036038101906103bd9190613e46565b610ee9565b6040516103cf9190613db7565b60405180910390f35b6103f260048036038101906103ed9190613e06565b610f26565b6040516103ff9190613ad3565b60405180910390f35b610410610f91565b60405161041d9190613bb3565b60405180910390f35b610440600480360381019061043b9190614073565b610f98565b005b61044a611713565b6040516104589291906141a9565b60405180910390f35b61047b60048036038101906104769190613e06565b611765565b005b610485611786565b60405161049291906141f3565b60405180910390f35b6104b560048036038101906104b09190613c38565b6117ac565b6040516104c29190613db7565b60405180910390f35b6104d3612398565b6040516104e3949392919061420e565b60405180910390f35b61050660048036038101906105019190613f1d565b6123ea565b005b610522600480360381019061051d9190613f1d565b612459565b60405161052f9190614253565b60405180910390f35b5050505050505050565b60007f7965db0b000000000000000000000000000000000000000000000000000000007bffffffffffffffffffffffffffffffffffffffffffffffffffffffff1916827bffffffffffffffffffffffffffffffffffffffffffffffffffffffff191614806105b557506105b482612471565b5b9050919050565b60d16020528060005260406000206000915090508060000160009054906101000a9004600b0b908060010154908060020160009054906101000a900473ffffffffffffffffffffffffffffffffffffffff16908060030160009054906101000a900473ffffffffffffffffffffffffffffffffffffffff16905084565b7f241ecf16d79d0f8dbfb92cbc07fe17840425976cf0667f022fe9877caa831b0881565b6060898961066a826124db565b6106a9576040517f08c379a00000000000000000000000000000000000000000000000000000000081526004016106a0906142cb565b60405180910390fd5b6106b281612535565b6106f1576040517f08c379a00000000000000000000000000000000000000000000000000000000081526004016106e890614337565b60405180910390fd5b60cb60009054906101000a900473ffffffffffffffffffffffffffffffffffffffff1673ffffffffffffffffffffffffffffffffffffffff163373ffffffffffffffffffffffffffffffffffffffff1614610781576040517f08c379a0000000000000000000000000000000000000000000000000000000008152600401610778906143a3565b60405180910390fd5b84848080601f016020809104026020016040519081016040528093929190818152602001838380828437600081840152601f19601f820116905080830192505050505050509250600089898101906107d99190614401565b509050600060d260008373ffffffffffffffffffffffffffffffffffffffff1673ffffffffffffffffffffffffffffffffffffffff168152602001908152602001600020549050600060cc60009054906101000a900473ffffffffffffffffffffffffffffffffffffffff1673ffffffffffffffffffffffffffffffffffffffff1663aabd266860cd60009054906101000a900473ffffffffffffffffffffffffffffffffffffffff168f6040518363ffffffff1660e01b81526004016108a1929190614462565b608060405180830381865afa1580156108be573d6000803e3d6000fd5b505050506040513d601f19601f820116820180604052508101906108e291906144b5565b5050915050600060d1600084815260200190815260200160002060000160009054906101000a9004600b0b82610918919061454b565b905060cf600001600c9054906101000a9004600b0b60d1600085815260200190815260200160002060000160009054906101000a9004600b0b61095b91906145af565b600b0b82600b0b12156109a3576040517f08c379a000000000000000000000000000000000000000000000000000000000815260040161099a90614685565b60405180910390fd5b8160d1600085815260200190815260200160002060000160006101000a8154816bffffffffffffffffffffffff0219169083600b0b6bffffffffffffffffffffffff1602179055504260d1600085815260200190815260200160002060010181905550610a1387848360026125cf565b96505050505050509998505050505050505050565b600060656000838152602001908152602001600020600101549050919050565b610a5182610a28565b610a5a81612c78565b610a648383612c8c565b505050565b60606040517f08c379a0000000000000000000000000000000000000000000000000000000008152600401610a9d90614717565b60405180910390fd5b610aae612d6d565b73ffffffffffffffffffffffffffffffffffffffff168173ffffffffffffffffffffffffffffffffffffffff1614610b1b576040517f08c379a0000000000000000000000000000000000000000000000000000000008152600401610b12906147a9565b60405180910390fd5b610b258282612d7c565b5050565b600060cd60009054906101000a900473ffffffffffffffffffffffffffffffffffffffff16905090565b60d460009054906101000a900473ffffffffffffffffffffffffffffffffffffffff1681565b6060610b848a6124db565b1580610b965750610b9489612535565b155b80610bef575060cb60009054906101000a900473ffffffffffffffffffffffffffffffffffffffff1673ffffffffffffffffffffffffffffffffffffffff163373ffffffffffffffffffffffffffffffffffffffff1614155b15610c405782828080601f016020809104026020016040519081016040528093929190818152602001838380828437600081840152601f19601f820116905080830192505050505050509050610e47565b82828080601f016020809104026020016040519081016040528093929190818152602001838380828437600081840152601f19601f82011690508083019250505050505050905060008787810190610c989190614401565b5090503073ffffffffffffffffffffffffffffffffffffffff168173ffffffffffffffffffffffffffffffffffffffff1603610d1b5783838080601f016020809104026020016040519081016040528093929190818152602001838380828437600081840152601f19601f82011690508083019250505050505050915050610e47565b600060d260008373ffffffffffffffffffffffffffffffffffffffff1673ffffffffffffffffffffffffffffffffffffffff16815260200190815260200160002054905060ce60009054906101000a900473ffffffffffffffffffffffffffffffffffffffff1673ffffffffffffffffffffffffffffffffffffffff1663d7a612d18360ce60009054906101000a900473ffffffffffffffffffffffffffffffffffffffff16846040518463ffffffff1660e01b8152600401610de0939291906147c9565b600060405180830381600087803b158015610dfa57600080fd5b505af1158015610e0e573d6000803e3d6000fd5b50505050610e42838260d1600085815260200190815260200160002060000160009054906101000a9004600b0b60036125cf565b925050505b9998505050505050505050565b60007f000000000000000000000000000000000000000000000000000000000000000073ffffffffffffffffffffffffffffffffffffffff168273ffffffffffffffffffffffffffffffffffffffff16149050919050565b60606040517f08c379a0000000000000000000000000000000000000000000000000000000008152600401610ee090614872565b60405180910390fd5b60606040517f08c379a0000000000000000000000000000000000000000000000000000000008152600401610f1d90614904565b60405180910390fd5b60006065600084815260200190815260200160002060000160008373ffffffffffffffffffffffffffffffffffffffff1673ffffffffffffffffffffffffffffffffffffffff16815260200190815260200160002060009054906101000a900460ff16905092915050565b6000801b81565b60008060019054906101000a900460ff16159050808015610fc95750600160008054906101000a900460ff1660ff16105b80610ff65750610fd830612e5e565b158015610ff55750600160008054906101000a900460ff1660ff16145b5b611035576040517f08c379a000000000000000000000000000000000000000000000000000000000815260040161102c90614996565b60405180910390fd5b60016000806101000a81548160ff021916908360ff1602179055508015611072576001600060016101000a81548160ff0219169083151502179055505b61107a612e81565b6000731820a4b7618bde71dce8cdc73aab6c95905fad2490508073ffffffffffffffffffffffffffffffffffffffff166329965a1d307fb281fc8c12954d22544db45de3159a39272895b169a852b314f9cc762e44c53b306040518463ffffffff1660e01b81526004016110f0939291906149b6565b600060405180830381600087803b15801561110a57600080fd5b505af115801561111e573d6000803e3d6000fd5b505050508560cb60006101000a81548173ffffffffffffffffffffffffffffffffffffffff021916908373ffffffffffffffffffffffffffffffffffffffff1602179055508460cc60006101000a81548173ffffffffffffffffffffffffffffffffffffffff021916908373ffffffffffffffffffffffffffffffffffffffff1602179055508360ce60006101000a81548173ffffffffffffffffffffffffffffffffffffffff021916908373ffffffffffffffffffffffffffffffffffffffff1602179055508960d360006101000a81548173ffffffffffffffffffffffffffffffffffffffff021916908373ffffffffffffffffffffffffffffffffffffffff1602179055508760d460006101000a81548173ffffffffffffffffffffffffffffffffffffffff021916908373ffffffffffffffffffffffffffffffffffffffff1602179055508860d560006101000a81548173ffffffffffffffffffffffffffffffffffffffff021916908373ffffffffffffffffffffffffffffffffffffffff1602179055508260cf60008201518160000160006101000a8154816bffffffffffffffffffffffff0219169083600b0b6bffffffffffffffffffffffff160217905550602082015181600001600c6101000a8154816bffffffffffffffffffffffff0219169083600b0b6bffffffffffffffffffffffff16021790555060408201518160010160006101000a8154816bffffffffffffffffffffffff0219169083600b0b6bffffffffffffffffffffffff160217905550606082015181600101600c6101000a8154816bffffffffffffffffffffffff0219169083600b0b6bffffffffffffffffffffffff1602179055509050506113c56000801b60d360009054906101000a900473ffffffffffffffffffffffffffffffffffffffff16612ed2565b6114117f241ecf16d79d0f8dbfb92cbc07fe17840425976cf0667f022fe9877caa831b0860d360009054906101000a900473ffffffffffffffffffffffffffffffffffffffff16612ed2565b8660cd60006101000a81548173ffffffffffffffffffffffffffffffffffffffff021916908373ffffffffffffffffffffffffffffffffffffffff160217905550604051806040016040528060cb60009054906101000a900473ffffffffffffffffffffffffffffffffffffffff1673ffffffffffffffffffffffffffffffffffffffff16815260200160cb60009054906101000a900473ffffffffffffffffffffffffffffffffffffffff1673ffffffffffffffffffffffffffffffffffffffff1663b6d200de7fa9214cc96615e0085d3bb077758db69497dc2dce3b2b1e97bc93c3d18d83efd36040518263ffffffff1660e01b81526004016115169190613bb3565b602060405180830381865afa158015611533573d6000803e3d6000fd5b505050506040513d601f19601f820116820180604052508101906115579190614a2b565b73ffffffffffffffffffffffffffffffffffffffff1681525060c960008201518160000160006101000a81548173ffffffffffffffffffffffffffffffffffffffff021916908373ffffffffffffffffffffffffffffffffffffffff16021790555060208201518160010160006101000a81548173ffffffffffffffffffffffffffffffffffffffff021916908373ffffffffffffffffffffffffffffffffffffffff16021790555090505060006410000000006404000000006401000000006001171717905060cb60009054906101000a900473ffffffffffffffffffffffffffffffffffffffff1673ffffffffffffffffffffffffffffffffffffffff1663f373305230836040518363ffffffff1660e01b815260040161167b929190614a79565b600060405180830381600087803b15801561169557600080fd5b505af11580156116a9573d6000803e3d6000fd5b50505050505080156117085760008060016101000a81548160ff0219169083151502179055507f7f26b83ff96e1f2b6a682f133852f6798a09c465da95921460cefb384740249860016040516116ff9190614aea565b60405180910390a15b505050505050505050565b60c98060000160009054906101000a900473ffffffffffffffffffffffffffffffffffffffff16908060010160009054906101000a900473ffffffffffffffffffffffffffffffffffffffff16905082565b61176e82610a28565b61177781612c78565b6117818383612d7c565b505050565b60ce60009054906101000a900473ffffffffffffffffffffffffffffffffffffffff1681565b606089896117b9826124db565b6117f8576040517f08c379a00000000000000000000000000000000000000000000000000000000081526004016117ef906142cb565b60405180910390fd5b61180181612535565b611840576040517f08c379a000000000000000000000000000000000000000000000000000000000815260040161183790614337565b60405180910390fd5b60cb60009054906101000a900473ffffffffffffffffffffffffffffffffffffffff1673ffffffffffffffffffffffffffffffffffffffff163373ffffffffffffffffffffffffffffffffffffffff16146118d0576040517f08c379a00000000000000000000000000000000000000000000000000000000081526004016118c7906143a3565b60405180910390fd5b84848080601f016020809104026020016040519081016040528093929190818152602001838380828437600081840152601f19601f820116905080830192505050505050509250600089898101906119289190614401565b50905060d460009054906101000a900473ffffffffffffffffffffffffffffffffffffffff1673ffffffffffffffffffffffffffffffffffffffff168173ffffffffffffffffffffffffffffffffffffffff16036119bb576040517f08c379a00000000000000000000000000000000000000000000000000000000081526004016119b290614b77565b60405180910390fd5b600060cb60009054906101000a900473ffffffffffffffffffffffffffffffffffffffff1673ffffffffffffffffffffffffffffffffffffffff16633f6c923a88886040518363ffffffff1660e01b8152600401611a1a929190614bd3565b600060405180830381865afa158015611a37573d6000803e3d6000fd5b505050506040513d6000823e3d601f19601f82011682018060405250810190611a609190614e8f565b60a00151806020019051810190611a779190614ed8565b905060ce60009054906101000a900473ffffffffffffffffffffffffffffffffffffffff1673ffffffffffffffffffffffffffffffffffffffff16634f558e79826040518263ffffffff1660e01b8152600401611ad49190614253565b602060405180830381865afa158015611af1573d6000803e3d6000fd5b505050506040513d601f19601f82011682018060405250810190611b159190614f31565b611b54576040517f08c379a0000000000000000000000000000000000000000000000000000000008152600401611b4b90614faa565b60405180910390fd5b600060cc60009054906101000a900473ffffffffffffffffffffffffffffffffffffffff1673ffffffffffffffffffffffffffffffffffffffff1663aabd266860cd60009054906101000a900473ffffffffffffffffffffffffffffffffffffffff168f6040518363ffffffff1660e01b8152600401611bd5929190614462565b608060405180830381865afa158015611bf2573d6000803e3d6000fd5b505050506040513d601f19601f82011682018060405250810190611c1691906144b5565b5050915050600073ffffffffffffffffffffffffffffffffffffffff1660d1600084815260200190815260200160002060020160009054906101000a900473ffffffffffffffffffffffffffffffffffffffff1673ffffffffffffffffffffffffffffffffffffffff1603611d3b5760cf60000160009054906101000a9004600b0b600b0b81600b0b1215611ce0576040517f08c379a0000000000000000000000000000000000000000000000000000000008152600401611cd790615016565b60405180910390fd5b600060d1600084815260200190815260200160002060030160006101000a81548173ffffffffffffffffffffffffffffffffffffffff021916908373ffffffffffffffffffffffffffffffffffffffff16021790555061207b565b60cf600001600c9054906101000a9004600b0b60d1600084815260200190815260200160002060000160009054906101000a9004600b0b611d7c91906145af565b600b0b81600b0b1215611dc4576040517f08c379a0000000000000000000000000000000000000000000000000000000008152600401611dbb90614685565b60405180910390fd5b600073ffffffffffffffffffffffffffffffffffffffff1660d1600084815260200190815260200160002060030160009054906101000a900473ffffffffffffffffffffffffffffffffffffffff1673ffffffffffffffffffffffffffffffffffffffff1614611fef57600060c960010160009054906101000a900473ffffffffffffffffffffffffffffffffffffffff1673ffffffffffffffffffffffffffffffffffffffff1663e6a1e88860cd60009054906101000a900473ffffffffffffffffffffffffffffffffffffffff163060d1600088815260200190815260200160002060030160009054906101000a900473ffffffffffffffffffffffffffffffffffffffff166040518463ffffffff1660e01b8152600401611eea93929190615036565b608060405180830381865afa158015611f07573d6000803e3d6000fd5b505050506040513d601f19601f82011682018060405250810190611f2b91906144b5565b5050915050611feb8760d1600086815260200190815260200160002060030160009054906101000a900473ffffffffffffffffffffffffffffffffffffffff1660cd60009054906101000a900473ffffffffffffffffffffffffffffffffffffffff16611fcd60d1600089815260200190815260200160002060000160009054906101000a9004600b0b60cf600101600c9054906101000a9004600b0b612ee0565b85611fd8919061454b565b60c9612f2590949392919063ffffffff16565b9650505b60d1600083815260200190815260200160002060020160009054906101000a900473ffffffffffffffffffffffffffffffffffffffff1660d1600084815260200190815260200160002060030160006101000a81548173ffffffffffffffffffffffffffffffffffffffff021916908373ffffffffffffffffffffffffffffffffffffffff1602179055505b600060d1600084815260200190815260200160002060000160009054906101000a9004600b0b826120ac919061454b565b90508360d1600085815260200190815260200160002060020160006101000a81548173ffffffffffffffffffffffffffffffffffffffff021916908373ffffffffffffffffffffffffffffffffffffffff1602179055508160d1600085815260200190815260200160002060000160006101000a8154816bffffffffffffffffffffffff0219169083600b0b6bffffffffffffffffffffffff1602179055504260d16000858152602001908152602001600020600101819055508260d260008673ffffffffffffffffffffffffffffffffffffffff1673ffffffffffffffffffffffffffffffffffffffff1681526020019081526020016000208190555060ce60009054906101000a900473ffffffffffffffffffffffffffffffffffffffff1673ffffffffffffffffffffffffffffffffffffffff1663d7a612d1600073ffffffffffffffffffffffffffffffffffffffff1660d1600087815260200190815260200160002060030160009054906101000a900473ffffffffffffffffffffffffffffffffffffffff1673ffffffffffffffffffffffffffffffffffffffff161461228e5760d1600086815260200190815260200160002060030160009054906101000a900473ffffffffffffffffffffffffffffffffffffffff166122b2565b60ce60009054906101000a900473ffffffffffffffffffffffffffffffffffffffff165b86866040518463ffffffff1660e01b81526004016122d2939291906147c9565b600060405180830381600087803b1580156122ec57600080fd5b505af1158015612300573d6000803e3d6000fd5b50505050612383878483600073ffffffffffffffffffffffffffffffffffffffff1660d1600089815260200190815260200160002060030160009054906101000a900473ffffffffffffffffffffffffffffffffffffffff1673ffffffffffffffffffffffffffffffffffffffff161461237b57600161237e565b60005b6125cf565b96505050505050509998505050505050505050565b60cf8060000160009054906101000a9004600b0b9080600001600c9054906101000a9004600b0b908060010160009054906101000a9004600b0b9080600101600c9054906101000a9004600b0b905084565b7f241ecf16d79d0f8dbfb92cbc07fe17840425976cf0667f022fe9877caa831b0861241481612c78565b8160d460006101000a81548173ffffffffffffffffffffffffffffffffffffffff021916908373ffffffffffffffffffffffffffffffffffffffff1602179055505050565b60d26020528060005260406000206000915090505481565b60007f01ffc9a7000000000000000000000000000000000000000000000000000000007bffffffffffffffffffffffffffffffffffffffffffffffffffffffff1916827bffffffffffffffffffffffffffffffffffffffffffffffffffffffff1916149050919050565b600060cd60009054906101000a900473ffffffffffffffffffffffffffffffffffffffff1673ffffffffffffffffffffffffffffffffffffffff168273ffffffffffffffffffffffffffffffffffffffff16149050919050565b60007fa9214cc96615e0085d3bb077758db69497dc2dce3b2b1e97bc93c3d18d83efd38273ffffffffffffffffffffffffffffffffffffffff16637730599e6040518163ffffffff1660e01b8152600401602060405180830381865afa1580156125a3573d6000803e3d6000fd5b505050506040513d601f19601f820116820180604052508101906125c79190615082565b149050919050565b60608490506000670de0b6b3a764000060cf60010160009054906101000a9004600b0b6bffffffffffffffffffffffff16856bffffffffffffffffffffffff1661261991906150af565b6126239190615120565b905060008073ffffffffffffffffffffffffffffffffffffffff1660d1600088815260200190815260200160002060030160009054906101000a900473ffffffffffffffffffffffffffffffffffffffff1673ffffffffffffffffffffffffffffffffffffffff161461273857670de0b6b3a764000060cf600101600c9054906101000a9004600b0b6bffffffffffffffffffffffff16600260038111156126ce576126cd615151565b5b8660038111156126e1576126e0615151565b5b1461270f5760d1600089815260200190815260200160002060000160009054906101000a9004600b0b612711565b865b6bffffffffffffffffffffffff1661272991906150af565b6127339190615120565b61273b565b60005b905060d560009054906101000a900473ffffffffffffffffffffffffffffffffffffffff1673ffffffffffffffffffffffffffffffffffffffff1660d1600088815260200190815260200160002060030160009054906101000a900473ffffffffffffffffffffffffffffffffffffffff1673ffffffffffffffffffffffffffffffffffffffff16036127cd57600090505b60008183876127dc919061454b565b6127e6919061454b565b90506003808111156127fb576127fa615151565b5b85600381111561280e5761280d615151565b5b03612838578261281d90615180565b92508161282990615180565b91508061283590615180565b90505b8260d460148282829054906101000a9004600b0b61285691906145af565b92506101000a8154816bffffffffffffffffffffffff0219169083600b0b6bffffffffffffffffffffffff1602179055506128f48460d460009054906101000a900473ffffffffffffffffffffffffffffffffffffffff1660cd60009054906101000a900473ffffffffffffffffffffffffffffffffffffffff1660d460149054906101000a9004600b0b60c9612f2590949392919063ffffffff16565b9350600073ffffffffffffffffffffffffffffffffffffffff1660d1600089815260200190815260200160002060030160009054906101000a900473ffffffffffffffffffffffffffffffffffffffff1673ffffffffffffffffffffffffffffffffffffffff161415801561297057506000600b0b82600b0b14155b15612af857600060c960010160009054906101000a900473ffffffffffffffffffffffffffffffffffffffff1673ffffffffffffffffffffffffffffffffffffffff1663e6a1e88860cd60009054906101000a900473ffffffffffffffffffffffffffffffffffffffff163060d160008d815260200190815260200160002060030160009054906101000a900473ffffffffffffffffffffffffffffffffffffffff166040518463ffffffff1660e01b8152600401612a3193929190615036565b608060405180830381865afa158015612a4e573d6000803e3d6000fd5b505050506040513d601f19601f82011682018060405250810190612a7291906144b5565b5050915050612af48560d160008b815260200190815260200160002060030160009054906101000a900473ffffffffffffffffffffffffffffffffffffffff1660cd60009054906101000a900473ffffffffffffffffffffffffffffffffffffffff168685612ae191906145af565b60c9612f2590949392919063ffffffff16565b9450505b8060d560148282829054906101000a9004600b0b612b1691906145af565b92506101000a8154816bffffffffffffffffffffffff0219169083600b0b6bffffffffffffffffffffffff160217905550612bb48460d560009054906101000a900473ffffffffffffffffffffffffffffffffffffffff1660cd60009054906101000a900473ffffffffffffffffffffffffffffffffffffffff1660d560149054906101000a9004600b0b60c9612f2590949392919063ffffffff16565b9350600380811115612bc957612bc8615151565b5b856003811115612bdc57612bdb615151565b5b03612c6d5760d16000888152602001908152602001600020600080820160006101000a8154906bffffffffffffffffffffffff021916905560018201600090556002820160006101000a81549073ffffffffffffffffffffffffffffffffffffffff02191690556003820160006101000a81549073ffffffffffffffffffffffffffffffffffffffff021916905550505b505050949350505050565b612c8981612c84612d6d565b61302f565b50565b612c968282610f26565b612d695760016065600084815260200190815260200160002060000160008373ffffffffffffffffffffffffffffffffffffffff1673ffffffffffffffffffffffffffffffffffffffff16815260200190815260200160002060006101000a81548160ff021916908315150217905550612d0e612d6d565b73ffffffffffffffffffffffffffffffffffffffff168173ffffffffffffffffffffffffffffffffffffffff16837f2f8788117e7eff1d82e926ec794901d17c78024a50270940304540a733656f0d60405160405180910390a45b5050565b6000612d776130b4565b905090565b612d868282610f26565b15612e5a5760006065600084815260200190815260200160002060000160008373ffffffffffffffffffffffffffffffffffffffff1673ffffffffffffffffffffffffffffffffffffffff16815260200190815260200160002060006101000a81548160ff021916908315150217905550612dff612d6d565b73ffffffffffffffffffffffffffffffffffffffff168173ffffffffffffffffffffffffffffffffffffffff16837ff6391f5c32d9c69d2a47ea670b442974b53935d1edc7fd64eb21e047a839171b60405160405180910390a45b5050565b6000808273ffffffffffffffffffffffffffffffffffffffff163b119050919050565b600060019054906101000a900460ff16612ed0576040517f08c379a0000000000000000000000000000000000000000000000000000000008152600401612ec79061523a565b60405180910390fd5b565b612edc8282612c8c565b5050565b6000670de0b6b3a7640000826bffffffffffffffffffffffff16846bffffffffffffffffffffffff16612f1391906150af565b612f1d9190615120565b905092915050565b60606000600b0b82600b0b03612f4957612f4286863087876130f7565b9050613026565b60008660010160009054906101000a900473ffffffffffffffffffffffffffffffffffffffff1673ffffffffffffffffffffffffffffffffffffffff1663e6a1e8888530886040518463ffffffff1660e01b8152600401612fac9392919061527b565b608060405180830381865afa158015612fc9573d6000803e3d6000fd5b505050506040513d601f19601f82011682018060405250810190612fed91906144b5565b50509150506000600b0b81600b0b036130155761300d878787878761329c565b915050613026565b6130228787878787613441565b9150505b95945050505050565b6130398282610f26565b6130b057613046816135e6565b6130548360001c6020613613565b604051602001613065929190615391565b6040516020818303038152906040526040517f08c379a00000000000000000000000000000000000000000000000000000000081526004016130a79190615404565b60405180910390fd5b5050565b60006130bf33610e54565b80156130d057506014600036905010155b156130e457601436033560601c90506130f3565b6130ec61384f565b90506130f4565b5b90565b60608560000160009054906101000a900473ffffffffffffffffffffffffffffffffffffffff1673ffffffffffffffffffffffffffffffffffffffff16634329d2938760010160009054906101000a900473ffffffffffffffffffffffffffffffffffffffff1663b4b333c660e01b858888600067ffffffffffffffff81111561318457613183613f4f565b5b6040519080825280601f01601f1916602001820160405280156131b65781602001600182028036833780820191505090505b506040516024016131ca9493929190615426565b604051602081830303815290604052907bffffffffffffffffffffffffffffffffffffffffffffffffffffffff19166020820180517bffffffffffffffffffffffffffffffffffffffffffffffffffffffff8381831617835250505050886040518463ffffffff1660e01b8152600401613246939291906154be565b6000604051808303816000875af1158015613265573d6000803e3d6000fd5b505050506040513d6000823e3d601f19601f8201168201806040525081019061328e9190615516565b508091505095945050505050565b60608560000160009054906101000a900473ffffffffffffffffffffffffffffffffffffffff1673ffffffffffffffffffffffffffffffffffffffff16634329d2938760010160009054906101000a900473ffffffffffffffffffffffffffffffffffffffff166362fc305e60e01b868887600067ffffffffffffffff81111561332957613328613f4f565b5b6040519080825280601f01601f19166020018201604052801561335b5781602001600182028036833780820191505090505b5060405160240161336f949392919061558e565b604051602081830303815290604052907bffffffffffffffffffffffffffffffffffffffffffffffffffffffff19166020820180517bffffffffffffffffffffffffffffffffffffffffffffffffffffffff8381831617835250505050886040518463ffffffff1660e01b81526004016133eb939291906154be565b6000604051808303816000875af115801561340a573d6000803e3d6000fd5b505050506040513d6000823e3d601f19601f820116820180604052508101906134339190615516565b508091505095945050505050565b60608560000160009054906101000a900473ffffffffffffffffffffffffffffffffffffffff1673ffffffffffffffffffffffffffffffffffffffff16634329d2938760010160009054906101000a900473ffffffffffffffffffffffffffffffffffffffff166350209a6260e01b868887600067ffffffffffffffff8111156134ce576134cd613f4f565b5b6040519080825280601f01601f1916602001820160405280156135005781602001600182028036833780820191505090505b50604051602401613514949392919061558e565b604051602081830303815290604052907bffffffffffffffffffffffffffffffffffffffffffffffffffffffff19166020820180517bffffffffffffffffffffffffffffffffffffffffffffffffffffffff8381831617835250505050886040518463ffffffff1660e01b8152600401613590939291906154be565b6000604051808303816000875af11580156135af573d6000803e3d6000fd5b505050506040513d6000823e3d601f19601f820116820180604052508101906135d89190615516565b508091505095945050505050565b606061360c8273ffffffffffffffffffffffffffffffffffffffff16601460ff16613613565b9050919050565b60606000600283600261362691906150af565b61363091906155da565b67ffffffffffffffff81111561364957613648613f4f565b5b6040519080825280601f01601f19166020018201604052801561367b5781602001600182028036833780820191505090505b5090507f3000000000000000000000000000000000000000000000000000000000000000816000815181106136b3576136b261560e565b5b60200101907effffffffffffffffffffffffffffffffffffffffffffffffffffffffffffff1916908160001a9053507f7800000000000000000000000000000000000000000000000000000000000000816001815181106137175761371661560e565b5b60200101907effffffffffffffffffffffffffffffffffffffffffffffffffffffffffffff1916908160001a9053506000600184600261375791906150af565b61376191906155da565b90505b6001811115613801577f3031323334353637383961626364656600000000000000000000000000000000600f8616601081106137a3576137a261560e565b5b1a60f81b8282815181106137ba576137b961560e565b5b60200101907effffffffffffffffffffffffffffffffffffffffffffffffffffffffffffff1916908160001a905350600485901c9450806137fa9061563d565b9050613764565b5060008414613845576040517f08c379a000000000000000000000000000000000000000000000000000000000815260040161383c906156b2565b60405180910390fd5b8091505092915050565b600033905090565b6000604051905090565b600080fd5b600080fd5b600073ffffffffffffffffffffffffffffffffffffffff82169050919050565b60006138968261386b565b9050919050565b6138a68161388b565b81146138b157600080fd5b50565b6000813590506138c38161389d565b92915050565b6000819050919050565b6138dc816138c9565b81146138e757600080fd5b50565b6000813590506138f9816138d3565b92915050565b600080fd5b600080fd5b600080fd5b60008083601f840112613924576139236138ff565b5b8235905067ffffffffffffffff81111561394157613940613904565b5b60208301915083600182028301111561395d5761395c613909565b5b9250929050565b60008060008060008060008060c0898b03121561398457613983613861565b5b60006139928b828c016138b4565b98505060206139a38b828c016138b4565b97505060406139b48b828c016138b4565b96505060606139c58b828c016138ea565b955050608089013567ffffffffffffffff8111156139e6576139e5613866565b5b6139f28b828c0161390e565b945094505060a089013567ffffffffffffffff811115613a1557613a14613866565b5b613a218b828c0161390e565b92509250509295985092959890939650565b60007fffffffff0000000000000000000000000000000000000000000000000000000082169050919050565b613a6881613a33565b8114613a7357600080fd5b50565b600081359050613a8581613a5f565b92915050565b600060208284031215613aa157613aa0613861565b5b6000613aaf84828501613a76565b91505092915050565b60008115159050919050565b613acd81613ab8565b82525050565b6000602082019050613ae86000830184613ac4565b92915050565b600060208284031215613b0457613b03613861565b5b6000613b12848285016138ea565b91505092915050565b600081600b0b9050919050565b613b3181613b1b565b82525050565b613b40816138c9565b82525050565b613b4f8161388b565b82525050565b6000608082019050613b6a6000830187613b28565b613b776020830186613b37565b613b846040830185613b46565b613b916060830184613b46565b95945050505050565b6000819050919050565b613bad81613b9a565b82525050565b6000602082019050613bc86000830184613ba4565b92915050565b6000613bd98261388b565b9050919050565b613be981613bce565b8114613bf457600080fd5b50565b600081359050613c0681613be0565b92915050565b613c1581613b9a565b8114613c2057600080fd5b50565b600081359050613c3281613c0c565b92915050565b600080600080600080600080600060c08a8c031215613c5a57613c59613861565b5b6000613c688c828d01613bf7565b9950506020613c798c828d016138b4565b9850506040613c8a8c828d01613c23565b97505060608a013567ffffffffffffffff811115613cab57613caa613866565b5b613cb78c828d0161390e565b965096505060808a013567ffffffffffffffff811115613cda57613cd9613866565b5b613ce68c828d0161390e565b945094505060a08a013567ffffffffffffffff811115613d0957613d08613866565b5b613d158c828d0161390e565b92509250509295985092959850929598565b600081519050919050565b600082825260208201905092915050565b60005b83811015613d61578082015181840152602081019050613d46565b60008484015250505050565b6000601f19601f8301169050919050565b6000613d8982613d27565b613d938185613d32565b9350613da3818560208601613d43565b613dac81613d6d565b840191505092915050565b60006020820190508181036000830152613dd18184613d7e565b905092915050565b600060208284031215613def57613dee613861565b5b6000613dfd84828501613c23565b91505092915050565b60008060408385031215613e1d57613e1c613861565b5b6000613e2b85828601613c23565b9250506020613e3c858286016138b4565b9150509250929050565b600080600080600080600060a0888a031215613e6557613e64613861565b5b6000613e738a828b01613bf7565b9750506020613e848a828b016138b4565b9650506040613e958a828b01613c23565b955050606088013567ffffffffffffffff811115613eb657613eb5613866565b5b613ec28a828b0161390e565b9450945050608088013567ffffffffffffffff811115613ee557613ee4613866565b5b613ef18a828b0161390e565b925092505092959891949750929550565b6000602082019050613f176000830184613b46565b92915050565b600060208284031215613f3357613f32613861565b5b6000613f41848285016138b4565b91505092915050565b600080fd5b7f4e487b7100000000000000000000000000000000000000000000000000000000600052604160045260246000fd5b613f8782613d6d565b810181811067ffffffffffffffff82111715613fa657613fa5613f4f565b5b80604052505050565b6000613fb9613857565b9050613fc58282613f7e565b919050565b600080fd5b613fd881613b1b565b8114613fe357600080fd5b50565b600081359050613ff581613fcf565b92915050565b60006080828403121561401157614010613f4a565b5b61401b6080613faf565b9050600061402b84828501613fe6565b600083015250602061403f84828501613fe6565b602083015250604061405384828501613fe6565b604083015250606061406784828501613fe6565b60608301525092915050565b600080600080600080600080610160898b03121561409457614093613861565b5b60006140a28b828c016138b4565b98505060206140b38b828c016138b4565b97505060406140c48b828c016138b4565b96505060606140d58b828c016138b4565b95505060806140e68b828c016138b4565b94505060a06140f78b828c016138b4565b93505060c06141088b828c016138b4565b92505060e06141198b828c01613ffb565b9150509295985092959890939650565b6000819050919050565b600061414e6141496141448461386b565b614129565b61386b565b9050919050565b600061416082614133565b9050919050565b600061417282614155565b9050919050565b61418281614167565b82525050565b600061419382614155565b9050919050565b6141a381614188565b82525050565b60006040820190506141be6000830185614179565b6141cb602083018461419a565b9392505050565b60006141dd82614155565b9050919050565b6141ed816141d2565b82525050565b600060208201905061420860008301846141e4565b92915050565b60006080820190506142236000830187613b28565b6142306020830186613b28565b61423d6040830185613b28565b61424a6060830184613b28565b95945050505050565b60006020820190506142686000830184613b37565b92915050565b600082825260208201905092915050565b7f53757065724170703a206e6f7420616363657074656420746f6b656e00000000600082015250565b60006142b5601c8361426e565b91506142c08261427f565b602082019050919050565b600060208201905081810360008301526142e4816142a8565b9050919050565b7f53757065724170703a206f6e6c7920434641763120737570706f727465640000600082015250565b6000614321601e8361426e565b915061432c826142eb565b602082019050919050565b6000602082019050818103600083015261435081614314565b9050919050565b7f53757065724170703a20737570706f7274206f6e6c79206f6e6520686f737400600082015250565b600061438d601f8361426e565b915061439882614357565b602082019050919050565b600060208201905081810360008301526143bc81614380565b9050919050565b60006143ce8261386b565b9050919050565b6143de816143c3565b81146143e957600080fd5b50565b6000813590506143fb816143d5565b92915050565b6000806040838503121561441857614417613861565b5b6000614426858286016143ec565b9250506020614437858286016143ec565b9150509250929050565b600061444c82614155565b9050919050565b61445c81614441565b82525050565b60006040820190506144776000830185614453565b6144846020830184613ba4565b9392505050565b60008151905061449a816138d3565b92915050565b6000815190506144af81613fcf565b92915050565b600080600080608085870312156144cf576144ce613861565b5b60006144dd8782880161448b565b94505060206144ee878288016144a0565b93505060406144ff8782880161448b565b92505060606145108782880161448b565b91505092959194509250565b7f4e487b7100000000000000000000000000000000000000000000000000000000600052601160045260246000fd5b600061455682613b1b565b915061456183613b1b565b925082820390506b7fffffffffffffffffffffff81137fffffffffffffffffffffffffffffffffffffffff800000000000000000000000821217156145a9576145a861451c565b5b92915050565b60006145ba82613b1b565b91506145c583613b1b565b925082820190507fffffffffffffffffffffffffffffffffffffffff80000000000000000000000081126b7fffffffffffffffffffffff8213171561460d5761460c61451c565b5b92915050565b7f53757065724170703a20666c6f77526174652062656c6f7720696e6372656d6560008201527f6e74000000000000000000000000000000000000000000000000000000000000602082015250565b600061466f60228361426e565b915061467a82614613565b604082019050919050565b6000602082019050818103600083015261469e81614662565b9050919050565b7f556e737570706f727465642063616c6c6261636b202d204265666f726520416760008201527f7265656d656e7420437265617465640000000000000000000000000000000000602082015250565b6000614701602f8361426e565b915061470c826146a5565b604082019050919050565b60006020820190508181036000830152614730816146f4565b9050919050565b7f416363657373436f6e74726f6c3a2063616e206f6e6c792072656e6f756e636560008201527f20726f6c657320666f722073656c660000000000000000000000000000000000602082015250565b6000614793602f8361426e565b915061479e82614737565b604082019050919050565b600060208201905081810360008301526147c281614786565b9050919050565b60006060820190506147de6000830186613b46565b6147eb6020830185613b46565b6147f86040830184613b37565b949350505050565b7f556e737570706f727465642063616c6c6261636b202d20204265666f7265204160008201527f677265656d656e74205465726d696e6174656400000000000000000000000000602082015250565b600061485c60338361426e565b915061486782614800565b604082019050919050565b6000602082019050818103600083015261488b8161484f565b9050919050565b7f556e737570706f727465642063616c6c6261636b202d204265666f726520416760008201527f7265656d656e7420757064617465640000000000000000000000000000000000602082015250565b60006148ee602f8361426e565b91506148f982614892565b604082019050919050565b6000602082019050818103600083015261491d816148e1565b9050919050565b7f496e697469616c697a61626c653a20636f6e747261637420697320616c72656160008201527f647920696e697469616c697a6564000000000000000000000000000000000000602082015250565b6000614980602e8361426e565b915061498b82614924565b604082019050919050565b600060208201905081810360008301526149af81614973565b9050919050565b60006060820190506149cb6000830186613b46565b6149d86020830185613ba4565b6149e56040830184613b46565b949350505050565b60006149f88261388b565b9050919050565b614a08816149ed565b8114614a1357600080fd5b50565b600081519050614a25816149ff565b92915050565b600060208284031215614a4157614a40613861565b5b6000614a4f84828501614a16565b91505092915050565b6000614a6382614155565b9050919050565b614a7381614a58565b82525050565b6000604082019050614a8e6000830185614a6a565b614a9b6020830184613b37565b9392505050565b6000819050919050565b600060ff82169050919050565b6000614ad4614acf614aca84614aa2565b614129565b614aac565b9050919050565b614ae481614ab9565b82525050565b6000602082019050614aff6000830184614adb565b92915050565b7f53757065724170703a20666565526563697069656e742063616e6e6f7420737460008201527f7265616d00000000000000000000000000000000000000000000000000000000602082015250565b6000614b6160248361426e565b9150614b6c82614b05565b604082019050919050565b60006020820190508181036000830152614b9081614b54565b9050919050565b82818337600083830152505050565b6000614bb28385613d32565b9350614bbf838584614b97565b614bc883613d6d565b840190509392505050565b60006020820190508181036000830152614bee818486614ba6565b90509392505050565b614c0081614aac565b8114614c0b57600080fd5b50565b600081519050614c1d81614bf7565b92915050565b600081519050614c328161389d565b92915050565b600081519050614c4781613a5f565b92915050565b600080fd5b600067ffffffffffffffff821115614c6d57614c6c613f4f565b5b614c7682613d6d565b9050602081019050919050565b6000614c96614c9184614c52565b613faf565b905082815260208101848484011115614cb257614cb1614c4d565b5b614cbd848285613d43565b509392505050565b600082601f830112614cda57614cd96138ff565b5b8151614cea848260208601614c83565b91505092915050565b6000819050919050565b614d0681614cf3565b8114614d1157600080fd5b50565b600081519050614d2381614cfd565b92915050565b6000614d348261388b565b9050919050565b614d4481614d29565b8114614d4f57600080fd5b50565b600081519050614d6181614d3b565b92915050565b60006101608284031215614d7e57614d7d613f4a565b5b614d89610160613faf565b90506000614d9984828501614c0e565b6000830152506020614dad84828501614c0e565b6020830152506040614dc18482850161448b565b6040830152506060614dd584828501614c23565b6060830152506080614de984828501614c38565b60808301525060a082015167ffffffffffffffff811115614e0d57614e0c613fca565b5b614e1984828501614cc5565b60a08301525060c0614e2d8482850161448b565b60c08301525060e0614e418482850161448b565b60e083015250610100614e5684828501614d14565b61010083015250610120614e6c84828501614c23565b61012083015250610140614e8284828501614d52565b6101408301525092915050565b600060208284031215614ea557614ea4613861565b5b600082015167ffffffffffffffff811115614ec357614ec2613866565b5b614ecf84828501614d67565b91505092915050565b600060208284031215614eee57614eed613861565b5b6000614efc8482850161448b565b91505092915050565b614f0e81613ab8565b8114614f1957600080fd5b50565b600081519050614f2b81614f05565b92915050565b600060208284031215614f4757614f46613861565b5b6000614f5584828501614f1c565b91505092915050565b7f53757065724170703a20746f6b656e20646f6573206e6f742065786973740000600082015250565b6000614f94601e8361426e565b9150614f9f82614f5e565b602082019050919050565b60006020820190508181036000830152614fc381614f87565b9050919050565b7f53757065724170703a20666c6f77526174652062656c6f77206d696e696d756d600082015250565b600061500060208361426e565b915061500b82614fca565b602082019050919050565b6000602082019050818103600083015261502f81614ff3565b9050919050565b600060608201905061504b6000830186614453565b6150586020830185613b46565b6150656040830184613b46565b949350505050565b60008151905061507c81613c0c565b92915050565b60006020828403121561509857615097613861565b5b60006150a68482850161506d565b91505092915050565b60006150ba826138c9565b91506150c5836138c9565b92508282026150d3816138c9565b915082820484148315176150ea576150e961451c565b5b5092915050565b7f4e487b7100000000000000000000000000000000000000000000000000000000600052601260045260246000fd5b600061512b826138c9565b9150615136836138c9565b925082615146576151456150f1565b5b828204905092915050565b7f4e487b7100000000000000000000000000000000000000000000000000000000600052602160045260246000fd5b600061518b82613b1b565b91507fffffffffffffffffffffffffffffffffffffffff80000000000000000000000082036151bd576151bc61451c565b5b816000039050919050565b7f496e697469616c697a61626c653a20636f6e7472616374206973206e6f74206960008201527f6e697469616c697a696e67000000000000000000000000000000000000000000602082015250565b6000615224602b8361426e565b915061522f826151c8565b604082019050919050565b6000602082019050818103600083015261525381615217565b9050919050565b600061526582614155565b9050919050565b6152758161525a565b82525050565b6000606082019050615290600083018661526c565b61529d6020830185613b46565b6152aa6040830184613b46565b949350505050565b600081905092915050565b7f416363657373436f6e74726f6c3a206163636f756e7420000000000000000000600082015250565b60006152f36017836152b2565b91506152fe826152bd565b601782019050919050565b600081519050919050565b600061531f82615309565b61532981856152b2565b9350615339818560208601613d43565b80840191505092915050565b7f206973206d697373696e6720726f6c6520000000000000000000000000000000600082015250565b600061537b6011836152b2565b915061538682615345565b601182019050919050565b600061539c826152e6565b91506153a88285615314565b91506153b38261536e565b91506153bf8284615314565b91508190509392505050565b60006153d682615309565b6153e0818561426e565b93506153f0818560208601613d43565b6153f981613d6d565b840191505092915050565b6000602082019050818103600083015261541e81846153cb565b905092915050565b600060808201905061543b600083018761526c565b6154486020830186613b46565b6154556040830185613b46565b81810360608301526154678184613d7e565b905095945050505050565b7f3078000000000000000000000000000000000000000000000000000000000000600082015250565b60006154a8600283613d32565b91506154b382615472565b602082019050919050565b60006080820190506154d3600083018661419a565b81810360208301526154e58185613d7e565b905081810360408301526154f88161549b565b9050818103606083015261550c8184613d7e565b9050949350505050565b6000806040838503121561552d5761552c613861565b5b600083015167ffffffffffffffff81111561554b5761554a613866565b5b61555785828601614cc5565b925050602083015167ffffffffffffffff81111561557857615577613866565b5b61558485828601614cc5565b9150509250929050565b60006080820190506155a3600083018761526c565b6155b06020830186613b46565b6155bd6040830185613b28565b81810360608301526155cf8184613d7e565b905095945050505050565b60006155e5826138c9565b91506155f0836138c9565b92508282019050808211156156085761560761451c565b5b92915050565b7f4e487b7100000000000000000000000000000000000000000000000000000000600052603260045260246000fd5b6000615648826138c9565b91506000820361565b5761565a61451c565b5b600182039050919050565b7f537472696e67733a20686578206c656e67746820696e73756666696369656e74600082015250565b600061569c60208361426e565b91506156a782615666565b602082019050919050565b600060208201905081810360008301526156cb8161568f565b905091905056fea2646970667358221220ef90408902bf22f98a8b1581ed08efa5e8012483acac5335bb22a057a76bbd6d64736f6c63430008130033",
  "linkReferences": {},
  "deployedLinkReferences": {}
}