{
  "_format": "hh-sol-artifact-1",
  "contractName": "Streamer",
  "sourceName": "contracts/Streamer.sol",
  "abi": [
    {
      "inputs": [
        {
          "internalType": "string",
          "name": "name",
          "type": "string"
        },
        {
          "internalType": "string",
          "name": "symbol",
          "type": "string"
        },
        {
          "internalType": "uint256",
          "name": "supply",
          "type": "uint256"
        },
        {
          "internalType": "address",
          "name": "_stf",
          "type": "address"
        },
        {
          "internalType": "address",
          "name": "host",
          "type": "address"
        },
        {
          "internalType": "address",
          "name": "cfa",
          "type": "address"
        }
      ],
      "stateMutability": "nonpayable",
      "type": "constructor"
    },
    {
      "anonymous": false,
      "inputs": [
        {
          "indexed": true,
          "internalType": "bytes32",
          "name": "role",
          "type": "bytes32"
        },
        {
          "indexed": true,
          "internalType": "bytes32",
          "name": "previousAdminRole",
          "type": "bytes32"
        },
        {
          "indexed": true,
          "internalType": "bytes32",
          "name": "newAdminRole",
          "type": "bytes32"
        }
      ],
      "name": "RoleAdminChanged",
      "type": "event"
    },
    {
      "anonymous": false,
      "inputs": [
        {
          "indexed": true,
          "internalType": "bytes32",
          "name": "role",
          "type": "bytes32"
        },
        {
          "indexed": true,
          "internalType": "address",
          "name": "account",
          "type": "address"
        },
        {
          "indexed": true,
          "internalType": "address",
          "name": "sender",
          "type": "address"
        }
      ],
      "name": "RoleGranted",
      "type": "event"
    },
    {
      "anonymous": false,
      "inputs": [
        {
          "indexed": true,
          "internalType": "bytes32",
          "name": "role",
          "type": "bytes32"
        },
        {
          "indexed": true,
          "internalType": "address",
          "name": "account",
          "type": "address"
        },
        {
          "indexed": true,
          "internalType": "address",
          "name": "sender",
          "type": "address"
        }
      ],
      "name": "RoleRevoked",
      "type": "event"
    },
    {
      "inputs": [],
      "name": "DEFAULT_ADMIN_ROLE",
      "outputs": [
        {
          "internalType": "bytes32",
          "name": "",
          "type": "bytes32"
        }
      ],
      "stateMutability": "view",
      "type": "function"
    },
    {
      "inputs": [],
      "name": "STREAM_MANAGER_ROLE",
      "outputs": [
        {
          "internalType": "bytes32",
          "name": "",
          "type": "bytes32"
        }
      ],
      "stateMutability": "view",
      "type": "function"
    },
    {
      "inputs": [],
      "name": "cfaV1",
      "outputs": [
        {
          "internalType": "contract ISuperfluid",
          "name": "host",
          "type": "address"
        },
        {
          "internalType": "contract IConstantFlowAgreementV1",
          "name": "cfa",
          "type": "address"
        }
      ],
      "stateMutability": "view",
      "type": "function"
    },
    {
      "inputs": [
        {
          "internalType": "address",
          "name": "to",
          "type": "address"
        },
        {
          "internalType": "uint256",
          "name": "amount",
          "type": "uint256"
        }
      ],
      "name": "drop",
      "outputs": [],
      "stateMutability": "nonpayable",
      "type": "function"
    },
    {
      "inputs": [
        {
          "internalType": "bytes32",
          "name": "role",
          "type": "bytes32"
        }
      ],
      "name": "getRoleAdmin",
      "outputs": [
        {
          "internalType": "bytes32",
          "name": "",
          "type": "bytes32"
        }
      ],
      "stateMutability": "view",
      "type": "function"
    },
    {
      "inputs": [
        {
          "internalType": "bytes32",
          "name": "role",
          "type": "bytes32"
        },
        {
          "internalType": "address",
          "name": "account",
          "type": "address"
        }
      ],
      "name": "grantRole",
      "outputs": [],
      "stateMutability": "nonpayable",
      "type": "function"
    },
    {
      "inputs": [
        {
          "internalType": "bytes32",
          "name": "role",
          "type": "bytes32"
        },
        {
          "internalType": "address",
          "name": "account",
          "type": "address"
        }
      ],
      "name": "hasRole",
      "outputs": [
        {
          "internalType": "bool",
          "name": "",
          "type": "bool"
        }
      ],
      "stateMutability": "view",
      "type": "function"
    },
    {
      "inputs": [
        {
          "internalType": "address",
          "name": "forwarder",
          "type": "address"
        }
      ],
      "name": "isTrustedForwarder",
      "outputs": [
        {
          "internalType": "bool",
          "name": "",
          "type": "bool"
        }
      ],
      "stateMutability": "view",
      "type": "function"
    },
    {
      "inputs": [
        {
          "internalType": "bytes32",
          "name": "role",
          "type": "bytes32"
        },
        {
          "internalType": "address",
          "name": "account",
          "type": "address"
        }
      ],
      "name": "renounceRole",
      "outputs": [],
      "stateMutability": "nonpayable",
      "type": "function"
    },
    {
      "inputs": [
        {
          "internalType": "bytes32",
          "name": "role",
          "type": "bytes32"
        },
        {
          "internalType": "address",
          "name": "account",
          "type": "address"
        }
      ],
      "name": "revokeRole",
      "outputs": [],
      "stateMutability": "nonpayable",
      "type": "function"
    },
    {
      "inputs": [
        {
          "internalType": "address",
          "name": "to",
          "type": "address"
        },
        {
          "internalType": "int96",
          "name": "flowRate",
          "type": "int96"
        },
        {
          "internalType": "uint256",
          "name": "amount",
          "type": "uint256"
        }
      ],
      "name": "stream",
      "outputs": [],
      "stateMutability": "nonpayable",
      "type": "function"
    },
    {
      "inputs": [
        {
          "internalType": "bytes4",
          "name": "interfaceId",
          "type": "bytes4"
        }
      ],
      "name": "supportsInterface",
      "outputs": [
        {
          "internalType": "bool",
          "name": "",
          "type": "bool"
        }
      ],
      "stateMutability": "view",
      "type": "function"
    },
    {
      "inputs": [],
      "name": "token",
      "outputs": [
        {
          "internalType": "contract INativeSuperToken",
          "name": "",
          "type": "address"
        }
      ],
      "stateMutability": "view",
      "type": "function"
    }
  ],
  "bytecode": "0x60a06040523480156200001157600080fd5b50604051620033d8380380620033d883398181016040528101906200003791906200094f565b73bf175fcc7086b4f9bd59d5eae8ea67b8f940de0d8073ffffffffffffffffffffffffffffffffffffffff1660808173ffffffffffffffffffffffffffffffffffffffff1681525050506040516200008f906200070e565b604051809103906000f080158015620000ac573d6000803e3d6000fd5b50600260006101000a81548173ffffffffffffffffffffffffffffffffffffffff021916908373ffffffffffffffffffffffffffffffffffffffff16021790555082600160006101000a81548173ffffffffffffffffffffffffffffffffffffffff021916908373ffffffffffffffffffffffffffffffffffffffff160217905550600160009054906101000a900473ffffffffffffffffffffffffffffffffffffffff1673ffffffffffffffffffffffffffffffffffffffff1663d412d344600260009054906101000a900473ffffffffffffffffffffffffffffffffffffffff166040518263ffffffff1660e01b8152600401620001ad919062000a3a565b600060405180830381600087803b158015620001c857600080fd5b505af1158015620001dd573d6000803e3d6000fd5b50505050600260009054906101000a900473ffffffffffffffffffffffffffffffffffffffff1673ffffffffffffffffffffffffffffffffffffffff1663bd3a13f6878787306040518563ffffffff1660e01b815260040162000244949392919062000ac5565b600060405180830381600087803b1580156200025f57600080fd5b505af115801562000274573d6000803e3d6000fd5b5050505081600360006101000a81548173ffffffffffffffffffffffffffffffffffffffff021916908373ffffffffffffffffffffffffffffffffffffffff16021790555080600460006101000a81548173ffffffffffffffffffffffffffffffffffffffff021916908373ffffffffffffffffffffffffffffffffffffffff1602179055506040518060400160405280600360009054906101000a900473ffffffffffffffffffffffffffffffffffffffff1673ffffffffffffffffffffffffffffffffffffffff168152602001600360009054906101000a900473ffffffffffffffffffffffffffffffffffffffff1673ffffffffffffffffffffffffffffffffffffffff1663b6d200de7fa9214cc96615e0085d3bb077758db69497dc2dce3b2b1e97bc93c3d18d83efd36040518263ffffffff1660e01b8152600401620003c0919062000b3b565b602060405180830381865afa158015620003de573d6000803e3d6000fd5b505050506040513d601f19601f8201168201806040525081019062000404919062000b9d565b73ffffffffffffffffffffffffffffffffffffffff16815250600560008201518160000160006101000a81548173ffffffffffffffffffffffffffffffffffffffff021916908373ffffffffffffffffffffffffffffffffffffffff16021790555060208201518160010160006101000a81548173ffffffffffffffffffffffffffffffffffffffff021916908373ffffffffffffffffffffffffffffffffffffffff160217905550905050620004c56000801b336200050360201b60201c565b620004f77f930802d0eadfb856cb83e01d1c4daa3c89e9c6d9f74cfbe13124decf2b33128a336200050360201b60201c565b50505050505062000bcf565b620005158282620005f460201b60201c565b620005f057600160008084815260200190815260200160002060000160008373ffffffffffffffffffffffffffffffffffffffff1673ffffffffffffffffffffffffffffffffffffffff16815260200190815260200160002060006101000a81548160ff021916908315150217905550620005956200065e60201b60201c565b73ffffffffffffffffffffffffffffffffffffffff168173ffffffffffffffffffffffffffffffffffffffff16837f2f8788117e7eff1d82e926ec794901d17c78024a50270940304540a733656f0d60405160405180910390a45b5050565b600080600084815260200190815260200160002060000160008373ffffffffffffffffffffffffffffffffffffffff1673ffffffffffffffffffffffffffffffffffffffff16815260200190815260200160002060009054906101000a900460ff16905092915050565b6000620006706200067560201b60201c565b905090565b60006200068833620006cc60201b60201c565b80156200069a57506014600036905010155b15620006b057601436033560601c9050620006c8565b620006c06200070660201b60201c565b9050620006c9565b5b90565b600060805173ffffffffffffffffffffffffffffffffffffffff168273ffffffffffffffffffffffffffffffffffffffff16149050919050565b600033905090565b6108cf8062002b0983390190565b6000604051905090565b600080fd5b600080fd5b600080fd5b600080fd5b6000601f19601f8301169050919050565b7f4e487b7100000000000000000000000000000000000000000000000000000000600052604160045260246000fd5b62000785826200073a565b810181811067ffffffffffffffff82111715620007a757620007a66200074b565b5b80604052505050565b6000620007bc6200071c565b9050620007ca82826200077a565b919050565b600067ffffffffffffffff821115620007ed57620007ec6200074b565b5b620007f8826200073a565b9050602081019050919050565b60005b838110156200082557808201518184015260208101905062000808565b60008484015250505050565b6000620008486200084284620007cf565b620007b0565b90508281526020810184848401111562000867576200086662000735565b5b6200087484828562000805565b509392505050565b600082601f83011262000894576200089362000730565b5b8151620008a684826020860162000831565b91505092915050565b6000819050919050565b620008c481620008af565b8114620008d057600080fd5b50565b600081519050620008e481620008b9565b92915050565b600073ffffffffffffffffffffffffffffffffffffffff82169050919050565b60006200091782620008ea565b9050919050565b62000929816200090a565b81146200093557600080fd5b50565b60008151905062000949816200091e565b92915050565b60008060008060008060c087890312156200096f576200096e62000726565b5b600087015167ffffffffffffffff81111562000990576200098f6200072b565b5b6200099e89828a016200087c565b965050602087015167ffffffffffffffff811115620009c257620009c16200072b565b5b620009d089828a016200087c565b9550506040620009e389828a01620008d3565b9450506060620009f689828a0162000938565b935050608062000a0989828a0162000938565b92505060a062000a1c89828a0162000938565b9150509295509295509295565b62000a34816200090a565b82525050565b600060208201905062000a51600083018462000a29565b92915050565b600081519050919050565b600082825260208201905092915050565b600062000a808262000a57565b62000a8c818562000a62565b935062000a9e81856020860162000805565b62000aa9816200073a565b840191505092915050565b62000abf81620008af565b82525050565b6000608082019050818103600083015262000ae1818762000a73565b9050818103602083015262000af7818662000a73565b905062000b08604083018562000ab4565b62000b17606083018462000a29565b95945050505050565b6000819050919050565b62000b358162000b20565b82525050565b600060208201905062000b52600083018462000b2a565b92915050565b600062000b65826200090a565b9050919050565b62000b778162000b58565b811462000b8357600080fd5b50565b60008151905062000b978162000b6c565b92915050565b60006020828403121562000bb65762000bb562000726565b5b600062000bc68482850162000b86565b91505092915050565b608051611f1e62000beb60003960006103fe0152611f1e6000f3fe608060405234801561001057600080fd5b50600436106100cf5760003560e01c80638d0f8cef1161008c578063c42e4d7d11610066578063c42e4d7d14610224578063d3112b2e14610240578063d547741f1461025f578063fc0c546a1461027b576100cf565b80638d0f8cef146101ba57806391d14854146101d6578063a217fddf14610206576100cf565b806301ffc9a7146100d4578063248a9ca3146101045780632f2ff15d1461013457806336568abe146101505780633ea005c81461016c578063572b6c051461018a575b600080fd5b6100ee60048036038101906100e99190611308565b610299565b6040516100fb9190611350565b60405180910390f35b61011e600480360381019061011991906113a1565b610313565b60405161012b91906113dd565b60405180910390f35b61014e60048036038101906101499190611456565b610332565b005b61016a60048036038101906101659190611456565b610353565b005b6101746103d6565b60405161018191906113dd565b60405180910390f35b6101a4600480360381019061019f9190611496565b6103fa565b6040516101b19190611350565b60405180910390f35b6101d460048036038101906101cf91906114f9565b610452565b005b6101f060048036038101906101eb9190611456565b61052c565b6040516101fd9190611350565b60405180910390f35b61020e610596565b60405161021b91906113dd565b60405180910390f35b61023e60048036038101906102399190611572565b61059d565b005b6102486106b2565b604051610256929190611645565b60405180910390f35b61027960048036038101906102749190611456565b610704565b005b610283610725565b604051610290919061168f565b60405180910390f35b60007f7965db0b000000000000000000000000000000000000000000000000000000007bffffffffffffffffffffffffffffffffffffffffffffffffffffffff1916827bffffffffffffffffffffffffffffffffffffffffffffffffffffffff1916148061030c575061030b8261074b565b5b9050919050565b6000806000838152602001908152602001600020600101549050919050565b61033b82610313565b610344816107b5565b61034e83836107c9565b505050565b61035b6108a9565b73ffffffffffffffffffffffffffffffffffffffff168173ffffffffffffffffffffffffffffffffffffffff16146103c8576040517f08c379a00000000000000000000000000000000000000000000000000000000081526004016103bf9061172d565b60405180910390fd5b6103d282826108b8565b5050565b7f930802d0eadfb856cb83e01d1c4daa3c89e9c6d9f74cfbe13124decf2b33128a81565b60007f000000000000000000000000000000000000000000000000000000000000000073ffffffffffffffffffffffffffffffffffffffff168273ffffffffffffffffffffffffffffffffffffffff16149050919050565b7f930802d0eadfb856cb83e01d1c4daa3c89e9c6d9f74cfbe13124decf2b33128a61047c816107b5565b600082111561052757600260009054906101000a900473ffffffffffffffffffffffffffffffffffffffff1673ffffffffffffffffffffffffffffffffffffffff1663a9059cbb84846040518363ffffffff1660e01b81526004016104e292919061176b565b6020604051808303816000875af1158015610501573d6000803e3d6000fd5b505050506040513d601f19601f8201168201806040525081019061052591906117c0565b505b505050565b600080600084815260200190815260200160002060000160008373ffffffffffffffffffffffffffffffffffffffff1673ffffffffffffffffffffffffffffffffffffffff16815260200190815260200160002060009054906101000a900460ff16905092915050565b6000801b81565b7f930802d0eadfb856cb83e01d1c4daa3c89e9c6d9f74cfbe13124decf2b33128a6105c7816107b5565b600082111561067257600260009054906101000a900473ffffffffffffffffffffffffffffffffffffffff1673ffffffffffffffffffffffffffffffffffffffff1663a9059cbb85846040518363ffffffff1660e01b815260040161062d92919061176b565b6020604051808303816000875af115801561064c573d6000803e3d6000fd5b505050506040513d601f19601f8201168201806040525081019061067091906117c0565b505b6106ac84600260009054906101000a900473ffffffffffffffffffffffffffffffffffffffff16856005610999909392919063ffffffff16565b50505050565b60058060000160009054906101000a900473ffffffffffffffffffffffffffffffffffffffff16908060010160009054906101000a900473ffffffffffffffffffffffffffffffffffffffff16905082565b61070d82610313565b610716816107b5565b61072083836108b8565b505050565b600260009054906101000a900473ffffffffffffffffffffffffffffffffffffffff1681565b60007f01ffc9a7000000000000000000000000000000000000000000000000000000007bffffffffffffffffffffffffffffffffffffffffffffffffffffffff1916827bffffffffffffffffffffffffffffffffffffffffffffffffffffffff1916149050919050565b6107c6816107c16108a9565b610a95565b50565b6107d3828261052c565b6108a557600160008084815260200190815260200160002060000160008373ffffffffffffffffffffffffffffffffffffffff1673ffffffffffffffffffffffffffffffffffffffff16815260200190815260200160002060006101000a81548160ff02191690831515021790555061084a6108a9565b73ffffffffffffffffffffffffffffffffffffffff168173ffffffffffffffffffffffffffffffffffffffff16837f2f8788117e7eff1d82e926ec794901d17c78024a50270940304540a733656f0d60405160405180910390a45b5050565b60006108b3610b1a565b905090565b6108c2828261052c565b1561099557600080600084815260200190815260200160002060000160008373ffffffffffffffffffffffffffffffffffffffff1673ffffffffffffffffffffffffffffffffffffffff16815260200190815260200160002060006101000a81548160ff02191690831515021790555061093a6108a9565b73ffffffffffffffffffffffffffffffffffffffff168173ffffffffffffffffffffffffffffffffffffffff16837ff6391f5c32d9c69d2a47ea670b442974b53935d1edc7fd64eb21e047a839171b60405160405180910390a45b5050565b6000600b0b81600b0b036109b8576109b384308585610b5d565b610a8f565b60008460010160009054906101000a900473ffffffffffffffffffffffffffffffffffffffff1673ffffffffffffffffffffffffffffffffffffffff1663e6a1e8888430876040518463ffffffff1660e01b8152600401610a1b9392919061180e565b608060405180830381865afa158015610a38573d6000803e3d6000fd5b505050506040513d601f19601f82011682018060405250810190610a5c919061186f565b50509150506000600b0b81600b0b03610a8057610a7b85858585610cf7565b610a8d565b610a8c85858585610e91565b5b505b50505050565b610a9f828261052c565b610b1657610aac8161102b565b610aba8360001c6020611058565b604051602001610acb9291906119df565b6040516020818303038152906040526040517f08c379a0000000000000000000000000000000000000000000000000000000008152600401610b0d9190611a63565b60405180910390fd5b5050565b6000610b25336103fa565b8015610b3657506014600036905010155b15610b4a57601436033560601c9050610b59565b610b52611294565b9050610b5a565b5b90565b8360000160009054906101000a900473ffffffffffffffffffffffffffffffffffffffff1673ffffffffffffffffffffffffffffffffffffffff166339255d5b8560010160009054906101000a900473ffffffffffffffffffffffffffffffffffffffff1663b4b333c660e01b848787600067ffffffffffffffff811115610be857610be7611a85565b5b6040519080825280601f01601f191660200182016040528015610c1a5781602001600182028036833780820191505090505b50604051602401610c2e9493929190611b09565b604051602081830303815290604052907bffffffffffffffffffffffffffffffffffffffffffffffffffffffff19166020820180517bffffffffffffffffffffffffffffffffffffffffffffffffffffffff83818316178352505050506040518363ffffffff1660e01b8152600401610ca8929190611ba1565b6000604051808303816000875af1158015610cc7573d6000803e3d6000fd5b505050506040513d6000823e3d601f19601f82011682018060405250810190610cf09190611cdb565b5050505050565b8360000160009054906101000a900473ffffffffffffffffffffffffffffffffffffffff1673ffffffffffffffffffffffffffffffffffffffff166339255d5b8560010160009054906101000a900473ffffffffffffffffffffffffffffffffffffffff166362fc305e60e01b858786600067ffffffffffffffff811115610d8257610d81611a85565b5b6040519080825280601f01601f191660200182016040528015610db45781602001600182028036833780820191505090505b50604051602401610dc89493929190611d33565b604051602081830303815290604052907bffffffffffffffffffffffffffffffffffffffffffffffffffffffff19166020820180517bffffffffffffffffffffffffffffffffffffffffffffffffffffffff83818316178352505050506040518363ffffffff1660e01b8152600401610e42929190611ba1565b6000604051808303816000875af1158015610e61573d6000803e3d6000fd5b505050506040513d6000823e3d601f19601f82011682018060405250810190610e8a9190611cdb565b5050505050565b8360000160009054906101000a900473ffffffffffffffffffffffffffffffffffffffff1673ffffffffffffffffffffffffffffffffffffffff166339255d5b8560010160009054906101000a900473ffffffffffffffffffffffffffffffffffffffff166350209a6260e01b858786600067ffffffffffffffff811115610f1c57610f1b611a85565b5b6040519080825280601f01601f191660200182016040528015610f4e5781602001600182028036833780820191505090505b50604051602401610f629493929190611d33565b604051602081830303815290604052907bffffffffffffffffffffffffffffffffffffffffffffffffffffffff19166020820180517bffffffffffffffffffffffffffffffffffffffffffffffffffffffff83818316178352505050506040518363ffffffff1660e01b8152600401610fdc929190611ba1565b6000604051808303816000875af1158015610ffb573d6000803e3d6000fd5b505050506040513d6000823e3d601f19601f820116820180604052508101906110249190611cdb565b5050505050565b60606110518273ffffffffffffffffffffffffffffffffffffffff16601460ff16611058565b9050919050565b60606000600283600261106b9190611dae565b6110759190611df0565b67ffffffffffffffff81111561108e5761108d611a85565b5b6040519080825280601f01601f1916602001820160405280156110c05781602001600182028036833780820191505090505b5090507f3000000000000000000000000000000000000000000000000000000000000000816000815181106110f8576110f7611e24565b5b60200101907effffffffffffffffffffffffffffffffffffffffffffffffffffffffffffff1916908160001a9053507f78000000000000000000000000000000000000000000000000000000000000008160018151811061115c5761115b611e24565b5b60200101907effffffffffffffffffffffffffffffffffffffffffffffffffffffffffffff1916908160001a9053506000600184600261119c9190611dae565b6111a69190611df0565b90505b6001811115611246577f3031323334353637383961626364656600000000000000000000000000000000600f8616601081106111e8576111e7611e24565b5b1a60f81b8282815181106111ff576111fe611e24565b5b60200101907effffffffffffffffffffffffffffffffffffffffffffffffffffffffffffff1916908160001a905350600485901c94508061123f90611e53565b90506111a9565b506000841461128a576040517f08c379a000000000000000000000000000000000000000000000000000000000815260040161128190611ec8565b60405180910390fd5b8091505092915050565b600033905090565b6000604051905090565b600080fd5b600080fd5b60007fffffffff0000000000000000000000000000000000000000000000000000000082169050919050565b6112e5816112b0565b81146112f057600080fd5b50565b600081359050611302816112dc565b92915050565b60006020828403121561131e5761131d6112a6565b5b600061132c848285016112f3565b91505092915050565b60008115159050919050565b61134a81611335565b82525050565b60006020820190506113656000830184611341565b92915050565b6000819050919050565b61137e8161136b565b811461138957600080fd5b50565b60008135905061139b81611375565b92915050565b6000602082840312156113b7576113b66112a6565b5b60006113c58482850161138c565b91505092915050565b6113d78161136b565b82525050565b60006020820190506113f260008301846113ce565b92915050565b600073ffffffffffffffffffffffffffffffffffffffff82169050919050565b6000611423826113f8565b9050919050565b61143381611418565b811461143e57600080fd5b50565b6000813590506114508161142a565b92915050565b6000806040838503121561146d5761146c6112a6565b5b600061147b8582860161138c565b925050602061148c85828601611441565b9150509250929050565b6000602082840312156114ac576114ab6112a6565b5b60006114ba84828501611441565b91505092915050565b6000819050919050565b6114d6816114c3565b81146114e157600080fd5b50565b6000813590506114f3816114cd565b92915050565b600080604083850312156115105761150f6112a6565b5b600061151e85828601611441565b925050602061152f858286016114e4565b9150509250929050565b600081600b0b9050919050565b61154f81611539565b811461155a57600080fd5b50565b60008135905061156c81611546565b92915050565b60008060006060848603121561158b5761158a6112a6565b5b600061159986828701611441565b93505060206115aa8682870161155d565b92505060406115bb868287016114e4565b9150509250925092565b6000819050919050565b60006115ea6115e56115e0846113f8565b6115c5565b6113f8565b9050919050565b60006115fc826115cf565b9050919050565b600061160e826115f1565b9050919050565b61161e81611603565b82525050565b600061162f826115f1565b9050919050565b61163f81611624565b82525050565b600060408201905061165a6000830185611615565b6116676020830184611636565b9392505050565b6000611679826115f1565b9050919050565b6116898161166e565b82525050565b60006020820190506116a46000830184611680565b92915050565b600082825260208201905092915050565b7f416363657373436f6e74726f6c3a2063616e206f6e6c792072656e6f756e636560008201527f20726f6c657320666f722073656c660000000000000000000000000000000000602082015250565b6000611717602f836116aa565b9150611722826116bb565b604082019050919050565b600060208201905081810360008301526117468161170a565b9050919050565b61175681611418565b82525050565b611765816114c3565b82525050565b6000604082019050611780600083018561174d565b61178d602083018461175c565b9392505050565b61179d81611335565b81146117a857600080fd5b50565b6000815190506117ba81611794565b92915050565b6000602082840312156117d6576117d56112a6565b5b60006117e4848285016117ab565b91505092915050565b60006117f8826115f1565b9050919050565b611808816117ed565b82525050565b600060608201905061182360008301866117ff565b611830602083018561174d565b61183d604083018461174d565b949350505050565b600081519050611854816114cd565b92915050565b60008151905061186981611546565b92915050565b60008060008060808587031215611889576118886112a6565b5b600061189787828801611845565b94505060206118a88782880161185a565b93505060406118b987828801611845565b92505060606118ca87828801611845565b91505092959194509250565b600081905092915050565b7f416363657373436f6e74726f6c3a206163636f756e7420000000000000000000600082015250565b60006119176017836118d6565b9150611922826118e1565b601782019050919050565b600081519050919050565b60005b8381101561195657808201518184015260208101905061193b565b60008484015250505050565b600061196d8261192d565b61197781856118d6565b9350611987818560208601611938565b80840191505092915050565b7f206973206d697373696e6720726f6c6520000000000000000000000000000000600082015250565b60006119c96011836118d6565b91506119d482611993565b601182019050919050565b60006119ea8261190a565b91506119f68285611962565b9150611a01826119bc565b9150611a0d8284611962565b91508190509392505050565b6000601f19601f8301169050919050565b6000611a358261192d565b611a3f81856116aa565b9350611a4f818560208601611938565b611a5881611a19565b840191505092915050565b60006020820190508181036000830152611a7d8184611a2a565b905092915050565b7f4e487b7100000000000000000000000000000000000000000000000000000000600052604160045260246000fd5b600081519050919050565b600082825260208201905092915050565b6000611adb82611ab4565b611ae58185611abf565b9350611af5818560208601611938565b611afe81611a19565b840191505092915050565b6000608082019050611b1e60008301876117ff565b611b2b602083018661174d565b611b38604083018561174d565b8181036060830152611b4a8184611ad0565b905095945050505050565b7f3078000000000000000000000000000000000000000000000000000000000000600082015250565b6000611b8b600283611abf565b9150611b9682611b55565b602082019050919050565b6000606082019050611bb66000830185611636565b8181036020830152611bc88184611ad0565b90508181036040830152611bdb81611b7e565b90509392505050565b600080fd5b600080fd5b611bf782611a19565b810181811067ffffffffffffffff82111715611c1657611c15611a85565b5b80604052505050565b6000611c2961129c565b9050611c358282611bee565b919050565b600067ffffffffffffffff821115611c5557611c54611a85565b5b611c5e82611a19565b9050602081019050919050565b6000611c7e611c7984611c3a565b611c1f565b905082815260208101848484011115611c9a57611c99611be9565b5b611ca5848285611938565b509392505050565b600082601f830112611cc257611cc1611be4565b5b8151611cd2848260208601611c6b565b91505092915050565b600060208284031215611cf157611cf06112a6565b5b600082015167ffffffffffffffff811115611d0f57611d0e6112ab565b5b611d1b84828501611cad565b91505092915050565b611d2d81611539565b82525050565b6000608082019050611d4860008301876117ff565b611d55602083018661174d565b611d626040830185611d24565b8181036060830152611d748184611ad0565b905095945050505050565b7f4e487b7100000000000000000000000000000000000000000000000000000000600052601160045260246000fd5b6000611db9826114c3565b9150611dc4836114c3565b9250828202611dd2816114c3565b91508282048414831517611de957611de8611d7f565b5b5092915050565b6000611dfb826114c3565b9150611e06836114c3565b9250828201905080821115611e1e57611e1d611d7f565b5b92915050565b7f4e487b7100000000000000000000000000000000000000000000000000000000600052603260045260246000fd5b6000611e5e826114c3565b915060008203611e7157611e70611d7f565b5b600182039050919050565b7f537472696e67733a20686578206c656e67746820696e73756666696369656e74600082015250565b6000611eb26020836116aa565b9150611ebd82611e7c565b602082019050919050565b60006020820190508181036000830152611ee181611ea5565b905091905056fea26469706673582212205d0b5a2a65f06f405f50968d665bdc0e07e6ee35a48dcb09930dcb6af5b9884864736f6c63430008130033608060405234801561001057600080fd5b506108af806100206000396000f3fe60806040526004361061002d5760003560e01c80634a0687ef14610046578063bd3a13f61461006f5761003c565b3661003c5761003a610098565b005b610044610098565b005b34801561005257600080fd5b5061006d600480360381019061006891906103cc565b6100b2565b005b34801561007b57600080fd5b5061009660048036038101906100919190610494565b6101a3565b005b6100a06102de565b6100b06100ab6102e0565b6102ef565b565b600073ffffffffffffffffffffffffffffffffffffffff168173ffffffffffffffffffffffffffffffffffffffff1603610121576040517f08c379a000000000000000000000000000000000000000000000000000000000815260040161011890610598565b60405180910390fd5b600073ffffffffffffffffffffffffffffffffffffffff16610141610315565b73ffffffffffffffffffffffffffffffffffffffff1614610197576040517f08c379a000000000000000000000000000000000000000000000000000000000815260040161018e90610604565b60405180910390fd5b6101a08161033e565b50565b3073ffffffffffffffffffffffffffffffffffffffff166342fe098060006012898989896040518763ffffffff1660e01b81526004016101e896959493929190610718565b600060405180830381600087803b15801561020257600080fd5b505af1158015610216573d6000803e3d6000fd5b505050503073ffffffffffffffffffffffffffffffffffffffff1663c68d42838284600067ffffffffffffffff8111156102535761025261076f565b5b6040519080825280601f01601f1916602001820160405280156102855781602001600182028036833780820191505090505b506040518463ffffffff1660e01b81526004016102a49392919061083b565b600060405180830381600087803b1580156102be57600080fd5b505af11580156102d2573d6000803e3d6000fd5b50505050505050505050565b565b60006102ea610315565b905090565b3660008037600080366000845af43d6000803e8060008114610310573d6000f35b3d6000fd5b60007f360894a13ba1a3210667c828492db98dca3e2076cc3735a920a3ca505d382bbc54905090565b807f360894a13ba1a3210667c828492db98dca3e2076cc3735a920a3ca505d382bbc5550565b600080fd5b600080fd5b600073ffffffffffffffffffffffffffffffffffffffff82169050919050565b60006103998261036e565b9050919050565b6103a98161038e565b81146103b457600080fd5b50565b6000813590506103c6816103a0565b92915050565b6000602082840312156103e2576103e1610364565b5b60006103f0848285016103b7565b91505092915050565b600080fd5b600080fd5b600080fd5b60008083601f84011261041e5761041d6103f9565b5b8235905067ffffffffffffffff81111561043b5761043a6103fe565b5b60208301915083600182028301111561045757610456610403565b5b9250929050565b6000819050919050565b6104718161045e565b811461047c57600080fd5b50565b60008135905061048e81610468565b92915050565b600080600080600080608087890312156104b1576104b0610364565b5b600087013567ffffffffffffffff8111156104cf576104ce610369565b5b6104db89828a01610408565b9650965050602087013567ffffffffffffffff8111156104fe576104fd610369565b5b61050a89828a01610408565b9450945050604061051d89828a0161047f565b925050606061052e89828a016103b7565b9150509295509295509295565b600082825260208201905092915050565b7f5555505350726f78793a207a65726f2061646472657373000000000000000000600082015250565b600061058260178361053b565b915061058d8261054c565b602082019050919050565b600060208201905081810360008301526105b181610575565b9050919050565b7f5555505350726f78793a20616c726561647920696e697469616c697a65640000600082015250565b60006105ee601e8361053b565b91506105f9826105b8565b602082019050919050565b6000602082019050818103600083015261061d816105e1565b9050919050565b6000819050919050565b600061064961064461063f8461036e565b610624565b61036e565b9050919050565b600061065b8261062e565b9050919050565b600061066d82610650565b9050919050565b61067d81610662565b82525050565b6000819050919050565b600060ff82169050919050565b60006106b56106b06106ab84610683565b610624565b61068d565b9050919050565b6106c58161069a565b82525050565b82818337600083830152505050565b6000601f19601f8301169050919050565b60006106f7838561053b565b93506107048385846106cb565b61070d836106da565b840190509392505050565b600060808201905061072d6000830189610674565b61073a60208301886106bc565b818103604083015261074d8186886106eb565b905081810360608301526107628184866106eb565b9050979650505050505050565b7f4e487b7100000000000000000000000000000000000000000000000000000000600052604160045260246000fd5b6107a78161038e565b82525050565b6107b68161045e565b82525050565b600081519050919050565b600082825260208201905092915050565b60005b838110156107f65780820151818401526020810190506107db565b60008484015250505050565b600061080d826107bc565b61081781856107c7565b93506108278185602086016107d8565b610830816106da565b840191505092915050565b6000606082019050610850600083018661079e565b61085d60208301856107ad565b818103604083015261086f8184610802565b905094935050505056fea2646970667358221220cf3b51d0126623facd418037605d73922bbf08d53a4526556b1c1b896156c99a64736f6c63430008130033",
  "linkReferences": {},
  "deployedLinkReferences": {}
}