{
  "_format": "hh-sol-artifact-1",
  "contractName": "S2OFactory",
  "sourceName": "contracts/S2OFactory.sol",
  "abi": [
    {
      "inputs": [],
      "stateMutability": "nonpayable",
      "type": "constructor"
    },
    {
      "anonymous": false,
      "inputs": [
        {
          "indexed": false,
          "internalType": "uint8",
          "name": "version",
          "type": "uint8"
        }
      ],
      "name": "Initialized",
      "type": "event"
    },
    {
      "anonymous": false,
      "inputs": [
        {
          "indexed": true,
          "internalType": "address",
          "name": "owner",
          "type": "address"
        },
        {
          "indexed": false,
          "internalType": "address",
          "name": "nftContract",
          "type": "address"
        }
      ],
      "name": "S2ONFTCreated",
      "type": "event"
    },
    {
      "anonymous": false,
      "inputs": [
        {
          "indexed": true,
          "internalType": "address",
          "name": "beneficiary",
          "type": "address"
        },
        {
          "indexed": false,
          "internalType": "address",
          "name": "superAppContract",
          "type": "address"
        }
      ],
      "name": "S2OSuperAppCreated",
      "type": "event"
    },
    {
      "inputs": [],
      "name": "SUPERAPP_ROLE",
      "outputs": [
        {
          "internalType": "bytes32",
          "name": "",
          "type": "bytes32"
        }
      ],
      "stateMutability": "view",
      "type": "function"
    },
    {
      "inputs": [
        {
          "internalType": "address",
          "name": "owner",
          "type": "address"
        },
        {
          "internalType": "address",
          "name": "_superToken",
          "type": "address"
        },
        {
          "components": [
            {
              "internalType": "string",
              "name": "name",
              "type": "string"
            },
            {
              "internalType": "string",
              "name": "symbol",
              "type": "string"
            },
            {
              "internalType": "string",
              "name": "uri",
              "type": "string"
            },
            {
              "internalType": "uint256",
              "name": "maxSupply",
              "type": "uint256"
            }
          ],
          "internalType": "struct S2ONFT.Settings",
          "name": "_nftSettings",
          "type": "tuple"
        },
        {
          "components": [
            {
              "internalType": "int96",
              "name": "minFlowRate",
              "type": "int96"
            },
            {
              "internalType": "int96",
              "name": "minIncrement",
              "type": "int96"
            },
            {
              "internalType": "int96",
              "name": "protocolFeePercent",
              "type": "int96"
            },
            {
              "internalType": "int96",
              "name": "previousOwnerFeePercent",
              "type": "int96"
            }
          ],
          "internalType": "struct S2OSuperApp.Settings",
          "name": "_settings",
          "type": "tuple"
        }
      ],
      "name": "createS2O",
      "outputs": [
        {
          "internalType": "address",
          "name": "",
          "type": "address"
        },
        {
          "internalType": "address",
          "name": "",
          "type": "address"
        }
      ],
      "stateMutability": "nonpayable",
      "type": "function"
    },
    {
      "inputs": [
        {
          "internalType": "address",
          "name": "_nftImplementation",
          "type": "address"
        },
        {
          "internalType": "address",
          "name": "_superAppImplementation",
          "type": "address"
        },
        {
          "internalType": "address",
          "name": "_host",
          "type": "address"
        },
        {
          "internalType": "address",
          "name": "_cfa",
          "type": "address"
        },
        {
          "internalType": "address",
          "name": "_feeRecipient",
          "type": "address"
        }
      ],
      "name": "initialize",
      "outputs": [],
      "stateMutability": "nonpayable",
      "type": "function"
    },
    {
      "inputs": [
        {
          "internalType": "address",
          "name": "forwarder",
          "type": "address"
        }
      ],
      "name": "isTrustedForwarder",
      "outputs": [
        {
          "internalType": "bool",
          "name": "",
          "type": "bool"
        }
      ],
      "stateMutability": "view",
      "type": "function"
    },
    {
      "inputs": [],
      "name": "nftImplementation",
      "outputs": [
        {
          "internalType": "address",
          "name": "",
          "type": "address"
        }
      ],
      "stateMutability": "view",
      "type": "function"
    },
    {
      "inputs": [],
      "name": "superAppImplementation",
      "outputs": [
        {
          "internalType": "address",
          "name": "",
          "type": "address"
        }
      ],
      "stateMutability": "view",
      "type": "function"
    }
  ],
  "bytecode": "0x60a060405234801561001057600080fd5b5073bf175fcc7086b4f9bd59d5eae8ea67b8f940de0d8073ffffffffffffffffffffffffffffffffffffffff1660808173ffffffffffffffffffffffffffffffffffffffff1681525050506080516112b661007660003960006103c201526112b66000f3fe608060405234801561001057600080fd5b50600436106100625760003560e01c80631459457a14610067578063572b6c05146100835780639e45e44a146100b3578063bbf55d62146100d1578063ef5a0417146100ef578063f61ac58b14610120575b600080fd5b610081600480360381019061007c9190610953565b61013e565b005b61009d600480360381019061009891906109ce565b6103be565b6040516100aa9190610a16565b60405180910390f35b6100bb610416565b6040516100c89190610a4a565b60405180910390f35b6100d961043a565b6040516100e69190610a74565b60405180910390f35b61010960048036038101906101049190610d92565b610460565b604051610117929190610e15565b60405180910390f35b610128610791565b6040516101359190610a74565b60405180910390f35b60008060019054906101000a900460ff1615905080801561016f5750600160008054906101000a900460ff1660ff16105b8061019c575061017e306107b7565b15801561019b5750600160008054906101000a900460ff1660ff16145b5b6101db576040517f08c379a00000000000000000000000000000000000000000000000000000000081526004016101d290610ec1565b60405180910390fd5b60016000806101000a81548160ff021916908360ff1602179055508015610218576001600060016101000a81548160ff0219169083151502179055505b85600060026101000a81548173ffffffffffffffffffffffffffffffffffffffff021916908373ffffffffffffffffffffffffffffffffffffffff16021790555084600160006101000a81548173ffffffffffffffffffffffffffffffffffffffff021916908373ffffffffffffffffffffffffffffffffffffffff16021790555083600260006101000a81548173ffffffffffffffffffffffffffffffffffffffff021916908373ffffffffffffffffffffffffffffffffffffffff16021790555082600360006101000a81548173ffffffffffffffffffffffffffffffffffffffff021916908373ffffffffffffffffffffffffffffffffffffffff16021790555081600460006101000a81548173ffffffffffffffffffffffffffffffffffffffff021916908373ffffffffffffffffffffffffffffffffffffffff16021790555080156103b65760008060016101000a81548160ff0219169083151502179055507f7f26b83ff96e1f2b6a682f133852f6798a09c465da95921460cefb384740249860016040516103ad9190610f33565b60405180910390a15b505050505050565b60007f000000000000000000000000000000000000000000000000000000000000000073ffffffffffffffffffffffffffffffffffffffff168273ffffffffffffffffffffffffffffffffffffffff16149050919050565b7f7357d038babf09a64c4d679f7482aea063a18efbb45152aaf1d6531ec032be5381565b600160009054906101000a900473ffffffffffffffffffffffffffffffffffffffff1681565b6000806000846000015185602001518860405160200161048293929190610fbc565b60405160208183030381529060405280519060200120905060006104c8600060029054906101000a900473ffffffffffffffffffffffffffffffffffffffff16836107da565b90508073ffffffffffffffffffffffffffffffffffffffff166398d1ccda6104ee610896565b8a896040518463ffffffff1660e01b815260040161050e939291906110cb565b600060405180830381600087803b15801561052857600080fd5b505af115801561053c573d6000803e3d6000fd5b505050508773ffffffffffffffffffffffffffffffffffffffff167ff171d1cad81f367f6b3e691bca875ca676933474f4f4202d6e0c98629b404fca826040516105869190610a74565b60405180910390a260006105bc600160009054906101000a900473ffffffffffffffffffffffffffffffffffffffff16846107da565b90508073ffffffffffffffffffffffffffffffffffffffff1663ae292d996105e2610896565b8b600460009054906101000a900473ffffffffffffffffffffffffffffffffffffffff168c600260009054906101000a900473ffffffffffffffffffffffffffffffffffffffff16600360009054906101000a900473ffffffffffffffffffffffffffffffffffffffff16898e6040518963ffffffff1660e01b815260040161067298979695949392919061116d565b600060405180830381600087803b15801561068c57600080fd5b505af11580156106a0573d6000803e3d6000fd5b505050508873ffffffffffffffffffffffffffffffffffffffff167f91304a0d89e35d19a613296a02946c4d6402456a0ea84ea8de0ab56c45a98fa0826040516106ea9190610a74565b60405180910390a28173ffffffffffffffffffffffffffffffffffffffff16632f2ff15d7f7357d038babf09a64c4d679f7482aea063a18efbb45152aaf1d6531ec032be53836040518363ffffffff1660e01b815260040161074d9291906111eb565b600060405180830381600087803b15801561076757600080fd5b505af115801561077b573d6000803e3d6000fd5b5050505081819450945050505094509492505050565b600060029054906101000a900473ffffffffffffffffffffffffffffffffffffffff1681565b6000808273ffffffffffffffffffffffffffffffffffffffff163b119050919050565b6000763d602d80600a3d3981f3363d3d373d3d3d363d730000008360601b60e81c176000526e5af43d82803e903d91602b57fd5bf38360781b1760205281603760096000f59050600073ffffffffffffffffffffffffffffffffffffffff168173ffffffffffffffffffffffffffffffffffffffff1603610890576040517f08c379a000000000000000000000000000000000000000000000000000000000815260040161088790611260565b60405180910390fd5b92915050565b60006108a1336103be565b80156108b257506014600036905010155b156108c657601436033560601c90506108d5565b6108ce6108d9565b90506108d6565b5b90565b600033905090565b6000604051905090565b600080fd5b600080fd5b600073ffffffffffffffffffffffffffffffffffffffff82169050919050565b6000610920826108f5565b9050919050565b61093081610915565b811461093b57600080fd5b50565b60008135905061094d81610927565b92915050565b600080600080600060a0868803121561096f5761096e6108eb565b5b600061097d8882890161093e565b955050602061098e8882890161093e565b945050604061099f8882890161093e565b93505060606109b08882890161093e565b92505060806109c18882890161093e565b9150509295509295909350565b6000602082840312156109e4576109e36108eb565b5b60006109f28482850161093e565b91505092915050565b60008115159050919050565b610a10816109fb565b82525050565b6000602082019050610a2b6000830184610a07565b92915050565b6000819050919050565b610a4481610a31565b82525050565b6000602082019050610a5f6000830184610a3b565b92915050565b610a6e81610915565b82525050565b6000602082019050610a896000830184610a65565b92915050565b600080fd5b6000601f19601f8301169050919050565b7f4e487b7100000000000000000000000000000000000000000000000000000000600052604160045260246000fd5b610add82610a94565b810181811067ffffffffffffffff82111715610afc57610afb610aa5565b5b80604052505050565b6000610b0f6108e1565b9050610b1b8282610ad4565b919050565b600080fd5b600080fd5b600080fd5b600067ffffffffffffffff821115610b4a57610b49610aa5565b5b610b5382610a94565b9050602081019050919050565b82818337600083830152505050565b6000610b82610b7d84610b2f565b610b05565b905082815260208101848484011115610b9e57610b9d610b2a565b5b610ba9848285610b60565b509392505050565b600082601f830112610bc657610bc5610b25565b5b8135610bd6848260208601610b6f565b91505092915050565b6000819050919050565b610bf281610bdf565b8114610bfd57600080fd5b50565b600081359050610c0f81610be9565b92915050565b600060808284031215610c2b57610c2a610a8f565b5b610c356080610b05565b9050600082013567ffffffffffffffff811115610c5557610c54610b20565b5b610c6184828501610bb1565b600083015250602082013567ffffffffffffffff811115610c8557610c84610b20565b5b610c9184828501610bb1565b602083015250604082013567ffffffffffffffff811115610cb557610cb4610b20565b5b610cc184828501610bb1565b6040830152506060610cd584828501610c00565b60608301525092915050565b600081600b0b9050919050565b610cf781610ce1565b8114610d0257600080fd5b50565b600081359050610d1481610cee565b92915050565b600060808284031215610d3057610d2f610a8f565b5b610d3a6080610b05565b90506000610d4a84828501610d05565b6000830152506020610d5e84828501610d05565b6020830152506040610d7284828501610d05565b6040830152506060610d8684828501610d05565b60608301525092915050565b60008060008060e08587031215610dac57610dab6108eb565b5b6000610dba8782880161093e565b9450506020610dcb8782880161093e565b935050604085013567ffffffffffffffff811115610dec57610deb6108f0565b5b610df887828801610c15565b9250506060610e0987828801610d1a565b91505092959194509250565b6000604082019050610e2a6000830185610a65565b610e376020830184610a65565b9392505050565b600082825260208201905092915050565b7f496e697469616c697a61626c653a20636f6e747261637420697320616c72656160008201527f647920696e697469616c697a6564000000000000000000000000000000000000602082015250565b6000610eab602e83610e3e565b9150610eb682610e4f565b604082019050919050565b60006020820190508181036000830152610eda81610e9e565b9050919050565b6000819050919050565b600060ff82169050919050565b6000819050919050565b6000610f1d610f18610f1384610ee1565b610ef8565b610eeb565b9050919050565b610f2d81610f02565b82525050565b6000602082019050610f486000830184610f24565b92915050565b600081519050919050565b60005b83811015610f77578082015181840152602081019050610f5c565b60008484015250505050565b6000610f8e82610f4e565b610f988185610e3e565b9350610fa8818560208601610f59565b610fb181610a94565b840191505092915050565b60006060820190508181036000830152610fd68186610f83565b90508181036020830152610fea8185610f83565b9050610ff96040830184610a65565b949350505050565b600082825260208201905092915050565b600061101d82610f4e565b6110278185611001565b9350611037818560208601610f59565b61104081610a94565b840191505092915050565b61105481610bdf565b82525050565b600060808301600083015184820360008601526110778282611012565b915050602083015184820360208601526110918282611012565b915050604083015184820360408601526110ab8282611012565b91505060608301516110c0606086018261104b565b508091505092915050565b60006060820190506110e06000830186610a65565b6110ed6020830185610a65565b81810360408301526110ff818461105a565b9050949350505050565b61111281610ce1565b82525050565b60808201600082015161112e6000850182611109565b5060208201516111416020850182611109565b5060408201516111546040850182611109565b5060608201516111676060850182611109565b50505050565b600061016082019050611183600083018b610a65565b611190602083018a610a65565b61119d6040830189610a65565b6111aa6060830188610a65565b6111b76080830187610a65565b6111c460a0830186610a65565b6111d160c0830185610a65565b6111de60e0830184611118565b9998505050505050505050565b60006040820190506112006000830185610a3b565b61120d6020830184610a65565b9392505050565b7f455243313136373a2063726561746532206661696c6564000000000000000000600082015250565b600061124a601783610e3e565b915061125582611214565b602082019050919050565b600060208201905081810360008301526112798161123d565b905091905056fea264697066735822122015a4fcdc93577cafb7815252752a985c3056f244ed488674596a083dfafbf6bb64736f6c63430008130033",
  "linkReferences": {},
  "deployedLinkReferences": {}
}